:020000040800F2
:100000000000022075030008C7030008C9030008A8
:10001000CB030008CD030008CF0300080000000058
:10002000000000000000000000000000D1030008F4
:10003000D303000800000000D5030008D703000820
:10004000C5030008C5030008C5030008C503000870
:10005000C5030008C5030008DF030008C503000846
:10006000C5030008C5030008C5030008C503000850
:10007000C5030008C5030008C5030008C503000840
:10008000C5030008C5030008C50300080000000000
:10009000000000000000000000000000C503000890
:1000A000C5030008C5030008C5030008C503000810
:1000B000C5030008C5030008C5030008C503000800
:1000C000C5030008C5030008C5030008C5030008F0
:1000D000C5030008C5030008C503000800000000B0
:1000E000C5030008C5030008C503000800000000A0
:1000F000000000000000000000000000C503000830
:1001000000000000C5030008C5030008C50300087F
:1001100000000000000000000000000000000000DF
:10012000C5030008C5030008C5030008C50300088F
:10013000C5030008000000000000000000000000EF
:10014000000000000000000000000000C5030008DF
:10015000C5030008C5030008C5030008C50300085F
:10016000C5030008C50300080000000000000000EF
:10017000000000000000000000000000000000007F
:1001800000000000C503000800000000000000009F
:08019000C5030008C5030008C7
:1001980053B94AB9002908BF00281CBF4FF0FF31E6
:1001A8004FF0FF3000F00CB8ADF1080C6DE904CE4B
:1001B80000F042FFDDF804E0DDE9022304B07047F7
:1001C800704700BF0348044B834202D0034B03B17E
:1001D800184770470C0000200C00002000000000A9
:1001E8000548064B1B1AD90F01EBA301491002D091
:1001F800034B03B1184770470C0000200C00002087
:100208000000000010B5064C237843B9FFF7DAFF69
:10021800044B13B10448AFF300800123237010BDD1
:100228000C000020000000003813000808B5054B3A
:100238001BB105490548AFF30080BDE80840FFF74A
:10024800CFBF00BF000000001000002038130008D6
:1002580002440346934200D1704703F8011BF9E7B3
:1002680070B50D4B0D4D5B1B9C100026A64209D1A5
:1002780001F05EF80A4D0B4B5B1B9C100026A64252
:1002880005D170BD55F8043B98470136EEE755F89F
:10029800043B98470136F2E7681300086813000822
:1002A800681300086C13000872B6FEE710B594B026
:1002B80008AC302200212046FFF7CAFF0023039331
:1002C800049305930693079301931F4A116C41F019
:1002D80080511164126C02F080520192019A0293CB
:1002E8001A4B1A6842F440421A601B6803F44043F0
:1002F8000293029B012308934FF48033099302234E
:100308000E934FF480020F9208221092C822119285
:10031800129304231393204600F00AFB80B90F239D
:10032800039302230493002305934FF4805206920B
:100338000793032103A800F065FD18B914B010BD98
:10034800FFF7B2FFFFF7B0FF00380240007000402F
:1003580008B500F043F9FFF7A9FF00F05FF800F0D7
:10036800BBF800F03DF800F043F8FCE7DFF834D0C4
:1003780000F058FE0C480D490D4A002302E0D458FD
:10038800C4500433C4188C42F9D30A4A0A4C0023D7
:1003980001E013600432A242FBD3FFF761FFFFF7CD
:1003A800D7FF704700000220000000200C0000204A
:1003B800701300080C00002088000020FEE7FEE70C
:1003C800FEE7FEE7FEE7FEE770477047704708B5AF
:1003D80000F01EF908BD08B5012000F09BFA08BD21
:1003E80008B500F021F9014B186008BD280000206D
:1003F80008B500F019F9074B1B68C31AB3F5FA7F63
:1004080000D208BD034B18604FF40051024800F0B9
:1004180077FAF6E72800002000080240F0B58BB014
:1004280005AD002405940694079408940994019452
:10043800264B1A6B42F004021A631A6B02F004028C
:100448000192019A02941A6B42F080021A631A6BA5
:1004580002F080020292029A03941A6B42F001029F
:100468001A631A6B02F001020392039A04941A6B3E
:1004780042F002021A631B6B03F002030493049B0D
:10048800134F22464FF40051384600F033FA4FF428
:100498000053059301260696079408942946384682
:1004A80000F044F905964FF444130693079429463F
:1004B800084800F03BF922462146062000F00EF9D4
:1004C800062000F01BF90BB0F0BD00BF0038024059
:1004D800000802400004024008B50E480E4B0360B5
:1004E8004FF48273436000238360C36003614361F8
:1004F8004FF4802282613022C261036243628362C8
:100508000A23C36200F02EFD00B908BDFFF7CCFE38
:10051800FBE700BF2C0000200030014000B589B087
:100528000023039304930593069307930268154BDE
:100538009A4202D009B05DF804FB0021019103F54D
:1005480084335A6C42F480525A645A6C02F48052D2
:100558000192019A02911A6B42F001021A631B6B15
:1005680003F001030293029BF023039302230493F5
:10057800032306930523079303A9034800F0D6F83D
:10058800D8E700BF0030014000000240704700007B
:1005980010B504460E4B1A784FF47A73B3FBF2F396
:1005A8000C4A1068B0FBF3F000F0ACF868B90F2CF7
:1005B80001D901200AE0002221464FF0FF3000F067
:1005C8008DF8054B1C60002000E0012010BD00BF25
:1005D80000000020080000200400002008B50B4B94
:1005E8001A6842F400721A601A6842F480621A604B
:1005F8001A6842F480721A60032000F05DF80F2038
:10060800FFF7C6FFFFF7C2FF002008BD003C02400D
:10061800034A1168034B1B780B441360704700BFF3
:100628008400002000000020014B1868704700BFBC
:1006380084000020002807DB00F01F024009012386
:100648009340024A42F82030704700BF00E100E0C2
:10065800002808DB0901C9B200F1604000F56140DB
:1006680080F80013704700F00F000901C9B2014B70
:100678001954704714ED00E000B500F00700C0F110
:10068800070CBCF1040F28BF4FF0040C031D062B08
:100698000FD9C31E4FF0FF3E0EFA0CF021EA0001FD
:1006A80099400EFA03FE22EA0E0241EA02005DF8C2
:1006B80004FB0023EEE70000074AD36823F4E06355
:1006C8001B041B0C000200F4E060034343F0BF630B
:1006D80043F40033D360704700ED00E010B50446E2
:1006E800054BD868C0F30220FFF7C6FF0146204635
:1006F800FFF7AEFF10BD00BF00ED00E008B5FFF743
:1007080099FF08BD0138B0F1807F0BD24FF0E0238C
:100718005861054AF02182F82310002098610722C9
:100728001A6170470120704700ED00E000230F2B8D
:1007380000F2D78070B582B065E085684FEA430E55
:10074800032404FA0EF425EA0405CC6804FA0EF42E
:100758002C438460446824EA02044A68C2F3001205
:100768009A40224342605CE0DC08083450F82420B8
:1007780003F00705AD004FF00F0E0EFA05FE22EA52
:100788000E0E0A69AA4042EA0E0240F824205CE0F4
:10079800042200E0002202FA0EF22A430234514DEC
:1007A80045F82420504A94686FEA0C0224EA0C05A4
:1007B8004E6816F4801F01D04CEA04054A4CA56027
:1007C800E46802EA04054E6816F4001F01D04CEAFA
:1007D8000405454CE560646802EA04054E6816F4B1
:1007E800003F01D04CEA04053F4C65602468224074
:1007F8004D6815F4803F01D04CEA04023A4C22605F
:1008080001330F2B6BD801229A400C6804EA020CC2
:1008180032EA0404F4D14C6804F00304013C012CCE
:100828008BD94A6802F00302032A09D0C4685D0024
:100838000322AA4024EA02048A68AA402243C2602A
:100848004A6802F00302022A8ED004684FEA430E77
:10085800032202FA0EF224EA02044A6802F00302B2
:1008680002FA0EF2224302604A6812F4403FC7D0EF
:10087800002201921D4A546C44F480445464526C22
:1008880002F480420192019A9C08A51C154A52F86C
:10089800255003F0030E4FEA8E0E0F2202FA0EF2D5
:1008A80025EA0205124A90423FF474AF02F58062CD
:1008B80090420ED002F5806290420CD002F5806220
:1008C80090420AD002F5806290423FF461AF07225D
:1008D80061E701225FE702225DE703225BE702B0DE
:1008E80070BD704700380140003C014000380240AC
:1008F800000002400AB181617047090481617047B4
:10090800436901EA030221EA030141EA02418161E4
:100918007047704708B5054B5B69034200D108BDB5
:10092800024B5861FFF7F5FFF9E700BF003C0140B3
:10093800002800F0E08170B582B00446036813F027
:10094800010F3BD09F4B9B6803F00C03042B2CD06A
:100958009C4B9B6803F00C03082B21D06368B3F50C
:10096800803F4FD0B3F5A02F52D0964B1A6822F48F
:1009780080321A601A6822F480221A606368002B99
:1009880050D0FFF751FE05468E4B1B6813F4003F0D
:1009980014D1FFF749FE401B6428F5D90320B1E1C3
:1009A800884B5B6813F4800FD8D0864B1B6813F410
:1009B800003F03D06368002B00F09F81236813F089
:1009C800020F54D07F4B9B6813F00C0F3ED07D4B29
:1009D8009B6803F00C03082B33D0E368002B68D026
:1009E800794B01221A60FFF71FFE0546754B1B68FD
:1009F80013F0020F54D1FFF717FE401B0228F5D958
:100A080003207FE16F4A136843F480331360B5E72E
:100A18006C4B1A6842F480221A601A6842F48032D9
:100A28001A60ABE7FFF700FE0546664B1B6813F438
:100A3800003FC3D0FFF7F8FD401B6428F5D9032019
:100A480060E1604B5B6813F4800FC6D15D4B1B6897
:100A580013F0020F03D0E368012B40F05081594A8C
:100A6800136823F0F803216943EAC103136023687C
:100A780013F0080F42D063696BB3534B0122C3F8DC
:100A8800802EFFF7D1FD05464E4B5B6F13F0020F2A
:100A980034D1FFF7C9FD401B0228F5D9032031E105
:100AA800484A136823F0F803216943EAC103136035
:100AB800DDE7454B00221A60FFF7B6FD0546414BBE
:100AC8001B6813F0020FD2D0FFF7AEFD401B0228BF
:100AD800F5D9032016E13C4B0022C3F8802EFFF71E
:100AE800A3FD0546374B5B6F13F0020F06D0FFF7E7
:100AF8009BFD401B0228F5D9032003E1236813F06E
:100B0800040F77D02F4B1B6C13F0805F33D1002379
:100B180001932C4B1A6C42F080521A641B6C03F040
:100B280080530193019B0125284B1B6813F4807F98
:100B380023D0A368012B34D0052B38D0214B1A6F52
:100B480022F001021A671A6F22F004021A67A368DA
:100B5800002B3DD0FFF768FD06461A4B1B6F13F0BC
:100B6800020F46D1FFF760FD801B41F2883398429F
:100B7800F3D90320C6E00025D6E7144A136843F4E6
:100B880080731360FFF750FD0646104B1B6813F483
:100B9800807FCED1FFF748FD801B0228F5D90320BE
:100BA800B0E0084A136F43F001031367CFE7054B22
:100BB8001A6F42F004021A671A6F42F001021A67AC
:100BC800C5E700BF003802400000474200700040FF
:100BD800FFF72AFD0646524B1B6F13F0020F08D091
:100BE800FFF722FD801B41F288339842F3D9032096
:100BF80088E0EDB9A369002B00F08380484A926829
:100C080002F00C02082A51D0022B17D0454B0022C3
:100C18001A66FFF709FD0446414B1B6813F0007F75
:100C280042D0FFF701FD001B0228F5D9032069E037
:100C38003B4A136C23F080531364DBE7394B0022E3
:100C48001A66FFF7F1FC0546354B1B6813F0007F69
:100C580006D0FFF7E9FC401B0228F5D9032051E034
:100C6800E369226A1343626A43EA8213A26A52085A
:100C7800013A43EA0243E26A43EA0263284A5360BC
:100C8800284B01221A66FFF7CFFC0446244B1B6849
:100C980013F0007F06D1FFF7C7FC001B0228F5D927
:100CA80003202FE000202DE000202BE0012B2BD08B
:100CB8001B4B5B6803F48001E269914226D103F083
:100CC8003F02216A8A4223D1616A47F6C0721A40FC
:100CD800B2EB811F1ED103F44031A26A5208013AD7
:100CE800B1EB024F18D103F07063E26AB3EB026F05
:100CF80014D1002006E001207047012002E0012005
:100D080000E0002002B070BD0120FBE70120F9E7F8
:100D18000120F7E70120F5E70120F3E70120F1E7DB
:100D2800003802400000474208B5334B9B6803F087
:100D38000C03042B5BD0082B5BD12F4B5A6802F0B5
:100D48003F025B6813F4800F2CD02B4B5868C0F31C
:100D580088104FEA401CBCEB000C6EEB0E0E4FEAFD
:100D68008E1343EA9C634FEA8C11B1EB0C0163EBE1
:100D78000E03DB0043EA5173C90011EB000C43F189
:100D88000003590200234FEA4C2041EADC51FFF7E7
:100D9800FFF9194B5B68C3F3014301335B00B0FBF8
:100DA800F3F008BD144B5868C0F388104FEA401C94
:100DB800BCEB000C6EEB0E0E4FEA8E1343EA9C63FD
:100DC8004FEA8C11B1EB0C0163EB0E03DB0043EA35
:100DD8005173C90011EB000C43F100039902002381
:100DE8004FEA8C2041EA9C51FFF7D2F9D1E703483A
:100DF800D7E70348D5E700BF0038024000127A0061
:100E08000024F400002800F09B8070B50D460446CD
:100E18004F4B1B6803F007038B4208D2CBB24C4AF6
:100E28001370136803F007038B4240F08B8023682C
:100E380013F0020F17D013F0040F04D0454A93683B
:100E480043F4E0539360236813F0080F04D0414A39
:100E5800936843F4604393603E4A936823F0F00339
:100E6800A1680B439360236813F0010F32D06368C5
:100E7800012B21D09A1E012A25D9364A126812F070
:100E8800020F61D033498A6822F0030213438B6052
:100E9800FFF7CAFB06462F4B9B6803F00C036268FA
:100EA800B3EB820F16D0FFF7BFFB801B41F28833EC
:100EB8009842F0D9032042E0264A126812F4003F13
:100EC800E0D101203BE0234A126812F0007FD9D11B
:100ED800012034E01E4B1B6803F00703AB4207D91F
:100EE800EAB21B4B1A701B6803F00703AB422DD103
:100EF800236813F0040F06D0164A936823F4E053CE
:100F0800E1680B439360236813F0080F07D0114A78
:100F1800936823F46043216943EAC1039360FFF7B0
:100F280003FF0C4B9B68C3F303130B4AD35CD840F5
:100F38000A4B18600A4B1868FFF72AFB002070BD9F
:100F4800012070470120FAE70120F8E70120F6E7C1
:100F5800003C0240003802405013000808000020FE
:100F68000400002000285AD010B50446436A33B95B
:100F78004368B3F5827F05D00023C36102E00023F4
:100F8800036143610023A36294F85130002B40D0E1
:100F9800022384F851302268136823F04003136059
:100FA800636803F48273A26802F404421343E2689C
:100FB80002F400621343226902F0020213436269D9
:100FC80002F001021343A26902F400721343E269BA
:100FD80002F038021343226A02F080021343A26A25
:100FE80002F40052216813430B60638B03F004037F
:100FF800626A02F01002216813434B602268D369C9
:1010080023F40063D36100206065012384F8513024
:1010180010BD84F850302046FFF780FAB8E7012069
:1010280070470000034AD2F8883043F47003C2F8CE
:101038008830704700ED00E02DE9F047089D0F4625
:1010480004468C46002B48D18A42164661D9B2FA2A
:1010580082F34BB1C3F1200201FA03FC20FA02F239
:101068009E4042EA0C0C9C404FEA164EB7B2BCFBBD
:10107800FEF1220C0EFB11CC42EA0C4201FB07F0F8
:10108800904209D9B21801F1FF3C80F0EE809042FD
:1010980040F2EB8002393244121AA4B2B2FBFEF0DD
:1010A8000EFB102244EA024400FB07F7A74209D9C5
:1010B800341900F1FF3280F0DA80A74240F2D7807D
:1010C8003444023840EA0140E41B00211DB1DC40F1
:1010D8000023C5E90043BDE8F0878B4206D90DB16E
:1010E800C5E9000100210846BDE8F087B3FA83F19D
:1010F800002948D1BB4202D3824200F20781841AF8
:1011080067EB030201209446002DE4D0C5E9004CAA
:10111800E1E7002A00F09280B2FA82F3002B40F057
:10112800A8808A1A4FEA164E1FFA86FC0121200C65
:10113800B2FBFEF70EFB172240EA02420CFB07F057
:10114800904207D9B21807F1FF3802D2904200F254
:10115800E2804746121AA4B2B2FBFEF00EFB102240
:1011680044EA02440CFB00FCA44507D9341900F1F9
:10117800FF3202D2A44500F2CB801046A4EB0C0447
:1011880040EA0740A2E7C1F120068B4022FA06FC9C
:101198004CEA030C07FA01F420FA06F3F7404FEA89
:1011A8001C49234300FA01F81FFA8CFEB7FBF9F03B
:1011B8001C0C09FB107744EA074400FB0EF7A74212
:1011C80002FA01F20AD91CEB040400F1FF3A80F09C
:1011D8009B80A74240F2988002386444E41B9FB287
:1011E800B4FBF9F309FB134447EA044403FB0EFE7E
:1011F800A64509D91CEB040403F1FF3780F082806F
:10120800A6457FD9023B644443EA0040A4EB0E04A0
:10121800A0FB02E7BC427346B94663D360D05DB118
:10122800B8EB030264EB090404FA06F622FA01F3A8
:101238001E43CC40C5E9006400214CE76208480819
:1012480042EAC1710B0C43EA00438AB242EA034204
:10125800B3FBF6F1E407B4463746B6461F23B0FBA6
:10126800F6F0D21B41EA004161E7614614E71046F7
:1012780028E7C3F1200120FA01F29E4027FA01F184
:101288009F403A434FEA164E1FFA86FCB1FBFEF721
:101298000EFB1710110C41EA004107FB0CF88845BA
:1012A80004FA03F43AD9711807F1FF3001D28845DE
:1012B8001FD8A1EB0801B1FBFEF808FB0CF70EFBE9
:1012C800181192B242EA0142BA422FD2B21808F17A
:1012D800FF31C6D2BA42C4D2A8F102013244C0E7F3
:1012E800F0459CD2BEEB020367EB0C070138B94608
:1012F80095E7A6EB08084144B81EB1FBFEF808FBC9
:101308000CF7DCE73B467FE7504667E70846FBE615
:101318003444023832E7023F32441BE7A1EB0801AC
:101328003846B1FBFEF808FB0CF7C8E7414698E7DA
:10133800F8B500BFF8BC08BC9E467047F8B500BFBA
:08134800F8BC08BC9E4670478A
:101350000000000000000000010203040607080965
:08136000E0FCFF7F010000002A
:041368003502000842
:04136C000D02000866
:0C13700001000000100000000024F40048
:040000050800037577
:00000001FF
