:020000040800F2
:100000000000022089030008DB030008DD0300086C
:10001000DF030008E1030008E3030008000000001C
:10002000000000000000000000000000E5030008E0
:10003000E703000800000000E9030008EB030008E4
:10004000D9030008D9030008D9030008D903000820
:10005000D9030008D9030008F3030008D9030008F6
:10006000D9030008D9030008D9030008D903000800
:10007000D9030008D9030008D9030008D9030008F0
:10008000D9030008D9030008D903000800000000C4
:10009000000000000000000000000000D90300087C
:1000A000D9030008D9030008D9030008D9030008C0
:1000B000D9030008D9030008D9030008D9030008B0
:1000C000D9030008D9030008D9030008D9030008A0
:1000D000D9030008D9030008D90300080000000074
:1000E000D9030008D9030008D90300080000000064
:1000F000000000000000000000000000D90300081C
:1001000000000000D9030008D9030008D903000843
:1001100000000000000000000000000000000000DF
:10012000D9030008D9030008D9030008D90300083F
:10013000D9030008000000000000000000000000DB
:10014000000000000000000000000000D9030008CB
:10015000D9030008D9030008D9030008D90300080F
:10016000D9030008D90300080000000000000000C7
:10017000000000000000000000000000000000007F
:1001800000000000D903000800000000000000008B
:08019000D9030008D90300089F
:1001980053B94AB9002908BF00281CBF4FF0FF31E6
:1001A8004FF0FF3000F00CB8ADF1080C6DE904CE4B
:1001B80002F0EAFFDDF804E0DDE9022304B070474D
:1001C800704700BF10F8012B11F8013B012A28BF26
:1001D8009A42F7D0D01A70470348044B834202D0A2
:1001E800034B03B1184770470C0000200C00002097
:1001F800000000000548064B1B1AD90F01EBA301AC
:10020800491002D0034B03B1184770470C00002077
:100218000C0000200000000010B5064C237843B9FC
:10022800FFF7DAFF044B13B10448AFF30080012352
:10023800237010BD0C00002000000000E03400080E
:1002480008B5054B1BB105490548AFF30080BDE86B
:100258000840FFF7CFBF00BF0000000010000020DB
:10026800E034000802440346934200D1704703F883
:10027800011BF9E770B50D4B0D4D5B1B9C1000265B
:10028800A64209D103F028F90A4D0B4B5B1B9C10C1
:100298000026A64205D170BD55F8043B98470136A3
:1002A800EEE755F8043B98470136F2E7DC350008DD
:1002B800DC350008DC350008E035000872B6FEE7DA
:1002C80010B594B008AC302200212046FFF7CAFFD1
:1002D80000230393049305930693079301931F4AFE
:1002E800116C41F080511164126C02F0805201923D
:1002F800019A02931A4B1A6842F440421A601B682A
:1003080003F440430293029B012308934FF4803384
:10031800099302230E934FF480020F920822109241
:10032800C8221192129304231393204602F0FAF87C
:1003380080B90F23039302230493002305934FF4FA
:10034800805206920793032103A802F055FB18B9BF
:1003580014B010BDFFF7B2FFFFF7B0FF003802403E
:100368000070004008B501F033FFFFF7A9FF01F066
:100378004FFE01F0ABFE00F03DF800F0C5F8FCE7D9
:10038800DFF834D002F0F6FE0C480D490D4A002380
:1003980002E0D458C4500433C4188C42F9D30A4A32
:1003A8000A4C002301E013600432A242FBD3FFF79A
:1003B80061FFFFF7D7FF7047000002200000002010
:1003C8000C000020E43500080C0000202C0500205B
:1003D800FEE7FEE7FEE7FEE7FEE7FEE77047704749
:1003E800704708B501F00EFF08BD08B5012002F0FE
:1003F8008BF808BD30B583B000230193009301F05A
:100408000DFF394B186001223849394800F0B2FF16
:1004180020B1384B02221A7003B030BD0A22364987
:10042800364800F0D3FFB8B9344D01AB2022344927
:10043800284601F0A0F90446284601F0DFFA14B96D
:10044800019B1F2B11D800222849104600F092FF6B
:10045800284B02221A70DFE700222449104600F0D8
:1004680089FF244B02221A70D6E701222249234829
:1004780000F0ACFF08BB234C402200212046FFF7C8
:10048800F1FE1E4D6B463F222146284601F098F8A2
:100498000446284601F0B2FAC4B9009BB3B1184922
:1004A8001848FFF78FFED0B9124B01221A700022AC
:1004B8000E49104600F05EFFAEE700220B491046D9
:1004C80000F058FF0B4B02221A70A5E700220749DB
:1004D800104600F04FFF074B02221A709CE7054BAD
:1004E80002221A70E3E700BFC004002000350008AC
:1004F80090020020C404002038350008680000205D
:10050800143500082800002008B501F087FE104BBC
:100518001B78012B09D0DAB2022A0DD100224FF440
:1005280000510C4801F0E0FF05E064220A4B1B680B
:10053800C31A934203D208BD4FF4FA72F6E7064B8A
:1005480018604FF40051034801F0D4FFF3E700BFEF
:10055800C404002000080240C0040020427800784B
:1005680040EA02207047C378827842EA032243783F
:1005780043EA0223007840EA032070470170090A21
:10058800417070470170C1F307234370C1F30743FB
:100598008370090EC17070470020704700207047B3
:1005A80002394369023B8B4204D9836A428901FBC1
:1005B800023070470020704770B506460D4601F1BD
:1005C8001A00FFF7CBFF3378032B00D070BD044629
:1005D80005F11400FFF7C2FF44EA0040F6E770B5E2
:1005E80006460C46154691B204F11A00FFF7C6FFFD
:1005F8003378032B00D070BD290C04F11400FFF7E9
:10060800BDFFF8E70146006820B3024613780132BF
:10061800202B01D93A2BF9D13A2B01D00020704771
:100628000378A3F1300C5FFA8CFCBCF1090F0ED8EB
:100638000230904202D04FF0FF307047A3F13000F3
:10064800002802DD4FF0FF3070470A6070474FF016
:10065800FF3070474FF0FF30704738B50D460446FD
:1006680098B103689BB11A78A2B18188DA8891425F
:1006780003D0092000242C6038BD587801F0CEF949
:1006880010F0010009D12468F5E70920F3E71C46BA
:100698000920F0E709200024EDE709200024EAE713
:1006A80070B505790DB9284670BD044600F13006CD
:1006B8000123C26A3146407801F0C5F9054688B978
:1006C80000232371E16A236ACB1AA2699342EAD212
:1006D800E378022BE7D101230A443146607801F020
:1006E800B2F9E0E70125DEE770B5C36A8B4202D1B3
:1006F8000026304670BD04460D46FFF7D1FF06467A
:100708000028F6D101232A4604F13001607801F06F
:1007180093F910B101264FF0FF35E562E9E70000D3
:1007280038B50446002303714FF0FF33C362FFF767
:10073800DBFF00285AD104F22E20FFF70FFF0546F1
:1007480094F83030EB2B09D0E92B07D0E82B05D0F3
:100758004AF655239D4247D0032038BD4AF6552313
:100768009D4237D004F13B00FFF7F8FE94F83D2096
:10077800431E1842ECD1B0F5007FE9D3E8D8002A2F
:10078800E6D0531E1A42E3D104F13E00FFF7E6FE1D
:100798000028DDD094F84030013B012BD8D804F173
:1007A8004100FFF7DBFE0028D2D004F14300FFF739
:1007B800D5FE7F2806D804F15000FFF7D4FEB0F527
:1007C800803FC5D304F14600FFF7C8FE0028BFD01C
:1007D8000020C2E70822064904F1820002F050FE18
:1007E8000028BFD10020B8E70220B6E70420B4E70C
:1007F800F834000870B584B006460D460021FFF7AE
:100808008FFF022816D02BD855B300240DE006F12F
:100818003000230103F5E3731844FFF7A4FE04AB8B
:1008280003EB840343F8100C0134032CEFD91DB1FA
:100838006C1E0CE00024F8E72C4608E03046FFF771
:100848006FFF6DB901280BD90134032C08D804AB0C
:1008580003EB840353F8101C0029EFD10320F0E7C1
:1008680004B070BD2DE9F84F0D46164600230B6005
:10087800FFF7C8FE0028C0F21A81A14B53F82040A8
:10088800002C00F018812C6006F0FE06237873B166
:10089800607801F0C3F810F0010508D1002E00F0CF
:1008A800078110F0040F00F003810A2500E10023FE
:1008B8002370607801F0B9F810F0010540F0FD8070
:1008C8001EB110F0040F40F0FA8000212046FFF717
:1008D80091FF042800F0F580012800F2F480E66A10
:1008E80004F13B00FFF73AFEB0F5007F40F0ED80E1
:1008F80004F14600FFF732FE074620B904F1540020
:10090800FFF731FE0746A76194F84020E270531EB6
:10091800DBB2012B00F2DB8007FB02F894F83D9074
:10092800A4F80A90B9F1000F00F0D38009F1FF3361
:1009380019EA030F40F0CF8004F14100FFF70EFEE3
:100948008246208110F00F0F40F0C78004F1430069
:10095800FFF704FE834620B904F15000FFF703FEB9
:10096800834604F13E00FFF7F9FD0246002800F037
:10097800B68000EB080303EB1A139B45C0F0B18067
:10098800ABEB030BBBFBF9F1CB45C0F0AC805D488A
:10099800814206D84FF6F57081423FD84FF0020BDE
:1009A80001E04FF0000B40F6F570814239D9BBF1F8
:1009B800000F00F09A8001F10209C4F81490E66172
:1009C800324422623344A362BBF1030F2CD0BAF144
:1009D800000F00F0908042446262BBF1020F34D0F5
:1009E80009EB490309F0010909EB530909F2FF135F
:1009F800B7EB532FC0F081804FF0FF332361E360E2
:100A080080236371BBF1030F22D084F800B03E4A03
:100A1800138801339BB21380E38049E04FF0030B46
:100A2800C5E74FF0010BC6E704F15A00FFF796FD42
:100A380000285CD1BAF1000F5BD104F15C00FFF72C
:100A480092FD60624FEA8909D0E74FEA4909CDE78C
:100A580004F16000FFF782FD0128D6D1711C204601
:100A6800FFF742FE0028D0D10023637104F22E2044
:100A7800FFF774FD4AF655239842C6D104F13000B9
:100A8800FFF771FD214B9842BFD104F50570FFF7C0
:100A98006AFD1F4B9842B8D104F50670FFF763FD55
:100AA800206104F50770FFF75EFDE060ADE70B25F8
:100AB8002846BDE8F88F0C25FAE70325F8E70A254C
:100AC800F6E70125F4E70D25F2E70D25F0E70D25FA
:100AD800EEE70D25ECE70D25EAE70D25E8E70D25FE
:100AE800E6E70D25E4E70D25E2E70D25E0E70D250E
:100AF800DEE70D25DCE70D25DAE70D25D8E700BF91
:100B0800C8040020F5FFFF0FC604002052526141BF
:100B1800727241612DE9F047012975D907460C46E3
:100B2800164643698B4273D90378022B3ED0032BB8
:100B38004FD0012B6ED101EB5108016A01EB58210E
:100B4800FFF7D2FD054600285FD107F1300A08F10A
:100B58000109C8F3080814F001041DD01AF8083078
:100B680003F00F0343EA0613DBB20AF80830012347
:100B78003B71396A01EB59213846FFF7B5FD054647
:100B8800002842D1C9F3080944B1C6F307130AF88B
:100B9800093001233B7138E0F3B2E6E71AF809306F
:100BA800C6F3032223F00F031343F0E7016A01EBB6
:100BB8001421FFF799FD054638BB07F130006400A2
:100BC80004F4FF74B1B22044FFF7D8FC01233B7151
:100BD8001BE0016A01EBD411FFF786FD0546A0B9B9
:100BE80026F0704607F13003A40004F4FE741C4498
:100BF8002046FFF7B8FC00F0704131432046FFF76C
:100C0800C1FC01233B7100E002252846BDE8F087BE
:100C18000225FAE70225F8E7F8B50568012954D94D
:100C28000C466B698B4252D92B78022B2BD0032BA5
:100C380039D0012B4DD101EB5106296A01EB562120
:100C48002846FFF751FD10B14FF0FF303EE0771C0A
:100C5800C6F308062E4496F83060296A01EB57213E
:100C68002846FFF741FDB0BBC7F308072F4497F8A4
:100C7800303046EA032014F0010F01D0000925E0C6
:100C8800C0F30B0022E0296A01EB14212846FFF784
:100C98002BFD18BB05F13000640004F4FF742044F8
:100CA800FFF75CFC12E0296A01EBD4112846FFF734
:100CB8001BFDB0B905F13000A40004F4FE74204413
:100CC800FFF751FC20F0704000E00120F8BD012042
:100CD800FCE70120FAE74FF0FF30F7E74FF0FF306D
:100CE800F4E74FF0FF30F1E72DE9F041D0F800804C
:100CF800B1F5001F3FD207460E4611F01F0F3DD138
:100D080001618468E4B998F80030022B01D9D8F859
:100D18002440ACB9B8F80830B3EB561F30D9D8F82E
:100D28002430BB617C61BB6993B303EB5623BB6181
:100D380008F13008C6F308014144F96100201BE0BE
:100D4800B8F80A506D02AE420FD321463846FFF775
:100D580063FF0446B0F1FF3F14D0012814D9D8F836
:100D68001430834212D9761BEDE721464046FFF73F
:100D780017FCB861D6E70220BDE8F0810220FBE746
:100D88000220F9E70120F7E70220F5E70220F3E760
:100D98000220F1E72DE9F84306460768884631B98D
:100DA800FD688DB17B69AB420FD801250DE0FFF7D7
:100DB80033FF0346012878D9B0F1FF3F6FD07A6935
:100DC80082426CD8454600E001253B69002B66D07D
:100DD800454506D04FF00009B9F1000F3AD12C462D
:100DE8002FE005F101097B694B4501D84FF0020955
:100DF80049463046FFF710FF034601284FD0B0F1AF
:100E0800FF3F4CD00028E7D0FB68012B05D97A6951
:100E18009A4205D84FF00009DEE74FF00009DBE7FA
:100E28001D464FF00009D7E721463046FFF7F4FE8C
:100E3800034670B1012832D0B0F1FF3F2FD0AC4249
:100E480037D001347B69A342EED8012D2FD9022473
:100E5800EAE7A1464FF0FF3249463846FFF75AFE07
:100E68000346C8B9B8F1000F0FD1ABB9C7F80C9059
:100E78003A697B69023B9A4201D8013A3A617B7927
:100E880043F001037B714B4609E04A464146384628
:100E9800FFF740FE0346E8E7012B03D0012318467D
:100EA800BDE8F8834FF0FF33F9E70123F7E74B4636
:100EB800F5E74B46F3E7F8B50C46056801292ED946
:100EC800064611466B69A3422BD94AB14FF0FF324F
:100ED8002846FFF71FFE074610B123E0A24221D99A
:100EE800274621463046FFF797FE0446E0B1012821
:100EF8001CD0B0F1FF3F1BD0002239462846FFF72F
:100F080009FE074670B92B696A69911E8B42E5D2C2
:100F180001332B616B7943F001036B71DEE7022724
:100F280000E002273846F8BD0027FBE70227F9E76B
:100F38000127F7E7F8B505460C46FFF7B1FB08B1FE
:100F48000120F8BD21462846FFF72AFB0646E8623D
:100F580005F130074FF4007200213846FFF782F997
:100F6800002400E001346B89A34207D90123A219A8
:100F78003946687800F067FD0028F3D06889001BBF
:100F880018BF0120DDE72DE9F843044688460768C5
:100F980005692035B5F5001F01D300238361A369D6
:100FA800002B46D0C5F308063EB90133A361616939
:100FB80079B93B89B3EB551F07D9256107F1300390
:100FC8003344E3610020BDE8F8830023A3610420D3
:100FD800F9E77B89013B13EA5523EED12046FFF759
:100FE8001BFE8146012826D9B0F1FF3F25D07B6939
:100FF800834212D8B8F1000F17D061692046FFF775
:10100800C9FE8146D8B101281BD0B0F1FF3F1AD0E4
:1010180001463846FFF78EFFB8B9C4F81490494620
:101028003846FFF7BDFAA061C7E70023A361042093
:10103800C9E70420C7E70220C5E70120C3E7072066
:10104800C1E70220BFE70120BDE70120BBE770B57B
:10105800044606680021FFF747FE054640B12846CA
:1010680070BD00212046FFF78EFF05460028F6D107
:10107800A1693046FFF738FB05460028EFD1E06943
:1010880003787BB1C37A03F03F03A371C37A13F0EB
:10109800080FE6D10B2204F1200102F0F1F9002833
:1010A800DFD1DCE70425DAE7F8B504460E46076821
:1010B8000021FFF719FE0246C0B9002508E00135F6
:1010C800B54213D001212046FFF75DFF024668B9FB
:1010D800A1693846FFF708FB024638B9E3691B786F
:1010E800E52BECD0002BEAD00025EBE7042A01D051
:1010F8001046F8BD0722FBE72DE9F04F83B0804684
:101108000191D1F8009000F1200B4FF020330362D9
:101118004362C0F8273000273E464FF0080A1AE01D
:10112800013519F805302F2BFAD05C2BF8D04D4437
:10113800019B1D60002F66D098F82020E52A4FD02B
:10114800202C51D92B78202B53D804234DE0082785
:101158004FF00B0A2E46751C19F80640202CE6D9CC
:101168002F2CDED05C2CDCD02E2C01D0BA4508D830
:10117800BAF10B0F3FD02E2CE9D0062003B0BDE802
:10118800F08F14F0800F16D12046FFF705FAB8B19A
:10119800023619F805502846FFF700FA68B30AF135
:1011A800FF33BB422BD97B1C0BF807400BF80350CD
:1011B80002373546CEE704F07F04144B1C5DE3E7A5
:1011C8002146134802F06CF9D8B9A4F16103DBB2E7
:1011D800192B01D8203CE4B20BF807400137B9E7D6
:1011E800052288F82020ABE7042388F82B3000205C
:1011F800C4E70023F9E70620C0E70620BEE706207B
:10120800BCE70620BAE70620B8E700BF4435000867
:101218000435000830B583B004460191056801E043
:1012280001330193019B1A782F2AF9D05C2AF7D051
:101238000022A2601B781F2B1ED901A92046FFF7A8
:101248005BFF034600BB2046FFF701FF94F82B2005
:101258000346E0B912F0040F16D1A37913F0100F6A
:101268001CD005F130012369C3F30803194428464B
:10127800FFF7A2F9A060E0E7802384F82B3011463D
:101288002046FFF731FD0346184603B030BD042859
:10129800FAD112F0040FF7D10523F5E70523F3E798
:1012A80070B5044606680121FFF7FEFE054608B141
:1012B800284670BDA1693046FFF716FA0546002892
:1012C800F6D120220021E069FEF7CCFFE369216A0C
:1012D800626A19605A60218D94F82A2019819A72DD
:1012E80001233371E4E7000070B50446FFF7D8F92D
:1012F800054648B92378032B08D0002211466078A8
:1013080000F0A8FB00B10125284670BD6379012BC8
:10131800F3D104F130064FF4007200213046FEF795
:10132800A1FF4AF6552104F22E20FFF727F90F49AD
:101338003046FFF727F90E4904F50570FFF722F943
:10134800216904F50670FFF71DF9E16804F50770D7
:10135800FFF718F9E2690132E26201233146607849
:1013680000F071FB00236371C7E700BF525261416F
:101378007272416110B584B00190009114460391D6
:1013880003A8FFF73FF900281CDB0F4B53F8203068
:1013980023B100220C4941F820201A70019B3BB16F
:1013A8005870019B00221A70074B019A43F82020BD
:1013B80014B9204604B010BD002201A96846FFF701
:1013C80051FAF7E70B20F5E7C80400202DE9F047AC
:1013D8008EB00191002800F0EF801446064602F016
:1013E8003F073A4602A901A8FFF73CFA054628B18B
:1013F8000023336028460EB0BDE8F087029B0393B4
:10140800019903A8FFF706FF054618B99DF937307B
:10141800002B45DB14F01C0F53D0002D47D0042DB2
:1014280040D047F00807002DE2D117F0080F58D038
:10143800624C21460A980E30FFF7A4F821460A9814
:101448001630FFF79FF8DDF80880DDF82890494648
:101458004046FFF7B1F80446202389F80B300022F4
:101468000A994046FFF7BBF800210A981C30FFF79D
:1014780089F8029B01221A719CB3D3F82C800022B0
:10148800214603A8FFF717FD05460028B0D14146BD
:101498000298FFF729F90546013C029BDC6020E031
:1014A8000625B7E703A8FFF7FBFE0546B9E79DF851
:1014B800123013F0110F13D114F0040FB3D0082514
:1014C80096E7002D94D19DF8123013F0100F6FD1CC
:1014D80014F0020F05D013F0010F02D0072587E79B
:1014E8000725002D84D117F0080F01D047F04007D9
:1014F800DDF80890D9F82C303362DDF82880C6F87A
:10150800248041464846FFF757F80446B06008F182
:101518001C00FFF728F88046F060C6F80090B9F87C
:101528000630B380377400217174F161716106F17E
:10153800280A4FF400725046FEF794FE17F0200F69
:1015480032D0B8F1000F2FD0C6F81480B9F80A705D
:101558007F0202E00225A8EB07086DB9B8450BD950
:1015680021463046FFF758FB04460128F2D9B0F16E
:10157800FF3FF0D10125EEE7B461002D7FF438AFCD
:10158800C8F3080383B1029F21463846FFF708F8DD
:1015980008B902252CE700EB5822F26101235146D5
:1015A800787800F049FA28B9002D3FF423AF1FE7F7
:1015B80004251DE701251BE709251BE70000215429
:1015C8002DE9F04F85B004460E461746984600238D
:1015D800C8F8003003A9FFF740F80190002840F050
:1015E800A880637C0193002B40F0A380237C13F038
:1015F800010F00F0BD80E5686369ED1ABD425CD358
:101608003D465AE0A1692046FFF706FB65E04FF02A
:10161800020A84F811A0CDF804A08AE04FF0010A6C
:1016280084F811A0CDF804A083E04FF0020A84F8F2
:1016380011A0CDF804A07CE094F91030002B02DB57
:101648004FEA4A272FE0E069A0EB09005045F7D29E
:101658004FF4007204F1280106EB402001F02DFF41
:10166800EEE7E2694A450DD094F91030002B64DBAF
:1016780001234A4604F128010398407800F0DCF978
:1016880000286ED1C4F81C906369C3F30803C3F53E
:101698000077BD4200D22F4604F128013A4619448A
:1016A800304601F00AFFED1BD8F800303B44C8F87B
:1016B80000303E4463693B446361002D39D063695F
:1016C800C3F30802002ADFD1039A5789013F17EABA
:1016D800532708D1002B95D1A068012897D9B0F1DC
:1016E800FF3F9BD0A061DDF80CB0A1695846FEF71A
:1016F80057FF8146002898D0B9444FEA552AB5F5D6
:10170800007FAED307EB0A03BBF80A20934201D946
:10171800A2EB070A53464A4631469BF8010000F0FF
:101728008BF9002888D04FF0010A84F811A0CDF871
:1017380004A0019805B0BDE8F08F012304F1280149
:101748009BF8010000F07FF920B9237C03F07F03A8
:1017580023748DE74FF0010A84F811A0CDF804A096
:10176800E7E74FF0010A84F811A0CDF804A0E0E7FC
:1017780007230193DDE72DE9F04F85B004460E46B7
:10178800154698460023C8F8003003A9FEF765FF00
:101798000190002847D1637C0193002B43D1237C1F
:1017A80013F0020F00F0DC806369EB42C0F0A980FF
:1017B800DD43A6E0A1692046FFF7ECFA002800F017
:1017C800CA80012833D0B0F1FF3F37D0A061A368A9
:1017D80003B9A06094F91030002B36DBDDF80CB0AB
:1017E800A1695846FEF7DCFE8146002842D0B9447C
:1017F8004FEA552AB5F5007F58D307EB0A03BBF823
:101808000A20934201D9A2EB070A53464A463146B9
:101818009BF8010000F017F998B34FF0010A84F81B
:1018280011A0CDF804A0019805B0BDE8F08F4FF0E5
:10183800020A84F811A0CDF804A0F4E74FF0010AD9
:1018480084F811A0CDF804A0EDE70123E26904F1C2
:1018580028010398407800F0F6F820B9237C03F0BB
:101868007F032374BAE74FF0010A84F811A0CDF87A
:1018780004A0D8E74FF0020A84F811A0CDF804A01C
:10188800D1E7E169A1EB0901514502D34FEA4A27A3
:1018980028E04FF4007206EB412104F1280001F022
:1018A8000CFE237C03F07F032374EFE7E3694B45C9
:1018B80003D06269E3689A423CD3C4F81C90636918
:1018C800C3F30803C3F50077BD4200D22F4604F1E5
:1018D80028003A463146184401F0EFFD237C63F0B6
:1018E8007F032374ED1BD8F800303B44C8F8003060
:1018F8003E4463693B446361E268934238BF1346E0
:10190800E36045B36369C3F30802002AD7D1039A99
:101918005789013F17EA53277FF45CAF002B7FF408
:1019280049AFA06800287FF44CAF00212046FFF79C
:1019380031FA43E701234A4604F128019BF80100E4
:1019480000F07AF80028B8D04FF0010A84F811A006
:10195800CDF804A067E7237C43F04003237462E7D3
:10196800072301935FE7000030B583B0044601A95F
:10197800FEF773FE58B9237C13F0400F07D013F01D
:10198800800F06D1216A0198FEF7AEFE78B103B048
:1019980030BD0123E26904F128010198407800F084
:1019A80052F838BB237C03F07F032374EAE7656AA7
:1019B800EB7A43F02003EB72A26829462068FEF711
:1019C8000EFEE16805F11C00FEF7DCFD0A4905F191
:1019D8001600FEF7D7FD002105F11200FEF7CEFD37
:1019E800019801230371FFF77FFC237C23F0400358
:1019F8002374CCE70120CAE70000215410B582B057
:101A08000446FFF7B1FF08B102B010BD01A9204696
:101A1800FEF723FE0028F7D12060F5E708B1012082
:101A2800704708B500F014F908BD08B101207047E7
:101A380008B500F017F908BD18B908B500F0CCF9D9
:101A480008BD0420704718B908B500F00BFA08BDA6
:101A58000420704718B908B500F054FA08BD0420EE
:101A68007047000008B503483823C36101F018F92E
:101A780008BD00BFD004002008B503481023C36187
:101A880001F00EF908BD00BFD004002000B585B0F4
:101A9800FF238DF80F308DF80E304FF0FF33009391
:101AA80001230DF10F020DF10E01044801F039FA7E
:101AB8009DF80F0005B05DF804FB00BFD0040020BE
:101AC80010B5FFF7E3FF4CF25034FFF7DFFFFF28B4
:101AD80003D0013CF9D1002000E0012010BD000036
:101AE80008B501221021034800F0FEFCFFF7CEFFE5
:101AF80008BD00BF0000024010B5002210210748B1
:101B080000F0F2FCFFF7C2FFFFF7DAFF10B1012483
:101B1800204610BD0446FFF7E3FFF9E70000024046
:101B280070B505460E4644F62064FFF7AFFFFF2860
:101B380001D1013CF9D1FE280BD1FFF7A7FF28708E
:101B48000135013EF9D1FFF7A1FFFFF79FFF012003
:101B580070BD0020FCE7000000B583B08DF80700D9
:101B68004FF0FF3301220DF10701034801F0F7F8A8
:101B780003B05DF804FB00BFD004002038B504466C
:101B88000D4610F0800F29D1FFF7AAFFFFF7B4FF29
:101B9800A0B32046FFF7E0FF280EFFF7DDFFC5F3EF
:101BA8000740FFF7D9FFC5F30720FFF7D5FFE8B2D5
:101BB800FFF7D2FF402C1AD0482C1AD00120FFF78B
:101BC800CBFF4C2C17D00A24FFF760FF10F0800FD2
:101BD80003D0631E13F0FF04F6D138BD00F07F0474
:101BE80000217720FFF7CAFF0128CDD9F5E7952016
:101BF800E5E78720E3E7FFF749FFE4E7FF20ECE7A5
:101C080038B505460C46FFF75BFF00B938BD2046DE
:101C1800FFF7A2FFFD2C01D0002405E00120F5E725
:101C2800285DFFF799FF0134B4F5007FF8D3FF2052
:101C3800FFF792FFFF20FFF78FFFFFF727FF00F066
:101C48001F03052B01D10120E0E70020DEE700009B
:101C580018B9034B1878C0B270470120704700BF0D
:101C68000000002008B101207047F0B587B0694630
:101C78000023009301930293039304931026009684
:101C880001240194029403230393504D284600F045
:101C980047FB22463146284600F026FCFFF7E2FEC5
:101CA8000A2403E0FFF7F2FE013CE4B2002CF9D16C
:101CB80000214020FFF762FF064601280FD0444B61
:101CC8001C70FFF70DFF002C78D1424A137843F0BF
:101CD800010313703F4B1878C0B207B0F0BD4FF442
:101CE800D5714820FFF74AFF01283FD1254608E073
:101CF800FFF7CCFE05F118036B4403F8040C01351B
:101D0800EDB2032DF4D99DF81630012BD7D19DF8EB
:101D18001730AA2BD3D142F210750021F720FFF714
:101D28002DFF012807D84FF08041E920FFF726FF53
:101D380008B1013DF1D1002DC1D000217A20FFF773
:101D48001DFF054648B1BAE7FFF7A0FE05F11803E5
:101D58006B4403F8040C0135EDB2032DF4D99DF85A
:101D6800143013F0400F27D00C24A8E70021F720E7
:101D7800FFF704FF012814D9412742F2107500210A
:101D88003846FFF7FBFE08B1013DF8D1002D96D08B
:101D98004FF400715020FFF7F1FE00288FD1344630
:101DA8008DE70021E920FFF7E9FE012801D9412745
:101DB800E3E70226E927E0E7042480E7054A1378E9
:101DC80003F0FE031370FFF757FE83E7000002409D
:101DD800CC04002000000020002839D138B50D4679
:101DE8001C46002B36D01D4B1B7813F0010F33D146
:101DF8001B4B1B7813F0080F00D15202012C18D08E
:101E080011465220FFF7BAFE68B94FF40071284610
:101E1800FFF786FE18B105F50075013CF5D10021E4
:101E28004C20FFF7ABFEFFF75BFE201E18BF01201A
:101E380038BD11465120FFF7A1FE0028F3D14FF419
:101E480000712846FFF76CFE0028ECD00024EAE772
:101E5800042070470420EBE70320E9E70000002096
:101E6800CC040020002843D170B50D4616461C4608
:101E7800002B3FD0214B1B7813F0010F3CD1204B96
:101E88001B7813F0080F00D15602012C1BD013F059
:101E9800060F26D131465920FFF770FE68B9FC219C
:101EA8002846FFF7ADFE18B105F50075013CF6D1DF
:101EB800FD210020FFF7A4FEC0B1FFF711FE201E90
:101EC80018BF012070BD31465820FFF757FE002883
:101ED800F3D1FE212846FFF793FE0028EDD0002419
:101EE800EBE72146D720FFF749FED3E70124E4E7D3
:101EF800042070470420E5E70320E3E70000002002
:101F0800CC04002070B584B0002875D10C46154665
:101F18003D4B1B7813F0010F72D101290AD0032918
:101F28004ED000296ED1FFF7E7FD00B90124FFF775
:101F3800D7FD62E000214920FFF720FE064610B1D8
:101F4800FFF7CEFD59E010216846FFF7E9FD0028AC
:101F5800F6D09DF800309B09012B20D09DF8052074
:101F680002F00F029DF80A3002EBD3129DF80930F7
:101F78005B0003F006031A449DF808109DF807302B
:101F88009B0003EB91139DF80610890201F4406150
:101F98000B440133073A93402B603446D0E79DF851
:101FA80009309DF8082003EB02239DF8072012044E
:101FB80002F47C12134401339B022B603446BFE7C2
:101FC800124B1C7814F0040402D10123136014E0AE
:101FD80000214920FFF7D2FD044618B10124FFF77C
:101FE8007FFD0AE010216846FFF79AFD10B18023B3
:101FF8002B60F4E70124F2E70424204604B070BD06
:102008000324FAE70424F8E700000020CC040020A9
:10201800F0B58BB005AD0024059406940794089498
:1020280009940194264B1A6B42F004021A631A6B46
:1020380002F004020192019A02941A6B42F08002A3
:102048001A631A6B02F080020292029A03941A6BC6
:1020580042F001021A631A6B02F001020392039A1A
:1020680004941A6B42F002021A631B6B03F002031A
:102078000493049B134F22464FF40051384600F056
:1020880033FA4FF4005305930126069607940894F3
:102098002946384600F044F905964FF44413069350
:1020A80007942946084800F03BF9224621460620B5
:1020B80000F00EF9062000F01BF90BB0F0BD00BFD0
:1020C80000380240000802400004024008B50E48EB
:1020D8000E4B03604FF48273436000238360C36038
:1020E800036143614FF4802282613022C26103623E
:1020F800436283620A23C36200F0D2FD00B908BDBF
:10210800FEF7DCF8FBE700BFD004002000300140F8
:1021180000B589B0002303930493059306930793AE
:102128000268154B9A4202D009B05DF804FB002101
:10213800019103F584335A6C42F480525A645A6C04
:1021480002F480520192019A02911A6B42F0010244
:102158001A631B6B03F001030293029BF0230393A2
:1021680002230493032306930523079303A9034833
:1021780000F0D6F8D8E700BF003001400000024068
:102188007047000010B504460E4B1A784FF47A7366
:10219800B3FBF2F30C4A1068B0FBF3F000F0ACF8B4
:1021A80068B90F2C01D901200AE0002221464FF01E
:1021B800FF3000F08DF8054B1C60002000E0012086
:1021C80010BD00BF0100002008000020040000200E
:1021D80008B50B4B1A6842F400721A601A6842F488
:1021E80080621A601A6842F480721A60032000F054
:1021F8005DF80F20FFF7C6FFFFF7C2FF002008BDFC
:10220800003C0240034A1168034B1B780B441360DF
:10221800704700BF2805002001000020014B186806
:10222800704700BF28050020002807DB00F01F02C8
:10223800400901239340024A42F82030704700BF0A
:1022480000E100E0002808DB0901C9B200F16040A4
:1022580000F5614080F80013704700F00F00090195
:10226800C9B2014B1954704714ED00E000B500F0F5
:102278000700C0F1070CBCF1040F28BF4FF0040C95
:10228800031D062B0FD9C31E4FF0FF3E0EFA0CF0AC
:1022980021EA000199400EFA03FE22EA0E0241EA01
:1022A80002005DF804FB0023EEE70000074AD3684C
:1022B80023F4E0631B041B0C000200F4E0600343FA
:1022C80043F0BF6343F40033D360704700ED00E090
:1022D80010B50446054BD868C0F30220FFF7C6FFC7
:1022E80001462046FFF7AEFF10BD00BF00ED00E03D
:1022F80008B5FFF799FF08BD0138B0F1807F0BD210
:102308004FF0E0235861054AF02182F8231000209D
:10231800986107221A6170470120704700ED00E0BC
:1023280000230F2B00F2D78070B582B065E0856876
:102338004FEA430E032404FA0EF425EA0405CC6898
:1023480004FA0EF42C438460446824EA02044A68C0
:10235800C2F300129A40224342605CE0DC08083471
:1023680050F8242003F00705AD004FF00F0E0EFAC9
:1023780005FE22EA0E0E0A69AA4042EA0E0240F859
:1023880024205CE0042200E0002202FA0EF22A4334
:102398000234514D45F82420504A94686FEA0C02E3
:1023A80024EA0C054E6816F4801F01D04CEA040597
:1023B8004A4CA560E46802EA04054E6816F4001F5A
:1023C80001D04CEA0405454CE560646802EA04055E
:1023D8004E6816F4003F01D04CEA04053F4C656096
:1023E800246822404D6815F4803F01D04CEA04026D
:1023F8003A4C226001330F2B6BD801229A400C68AB
:1024080004EA020C32EA0404F4D14C6804F0030430
:10241800013C012C8BD94A6802F00302032A09D037
:10242800C4685D000322AA4024EA02048A68AA401C
:102438002243C2604A6802F00302022A8ED004686E
:102448004FEA430E032202FA0EF224EA02044A6813
:1024580002F0030202FA0EF2224302604A6812F402
:10246800403FC7D0002201921D4A546C44F4804476
:102478005464526C02F480420192019A9C08A51C93
:10248800154A52F8255003F0030E4FEA8E0E0F221C
:1024980002FA0EF225EA0205124A90423FF474AF9E
:1024A80002F5806290420ED002F5806290420CD014
:1024B80002F5806290420AD002F5806290423FF4B1
:1024C80061AF072261E701225FE702225DE703228D
:1024D8005BE702B070BD704700380140003C014026
:1024E80000380240000002400AB1816170470904C7
:1024F80081617047436901EA030221EA030141EA65
:10250800024181617047704708B5054B5B6903421A
:1025180000D108BD024B5861FFF7F5FFF9E700BF8E
:10252800003C0140002800F0E08170B582B004460C
:10253800036813F0010F3BD09F4B9B6803F00C031B
:10254800042B2CD09C4B9B6803F00C03082B21D048
:102558006368B3F5803F4FD0B3F5A02F52D0964BA8
:102568001A6822F480321A601A6822F480221A60EB
:102578006368002B50D0FFF751FE05468E4B1B6851
:1025880013F4003F14D1FFF749FE401B6428F5D926
:102598000320B1E1884B5B6813F4800FD8D0864BD9
:1025A8001B6813F4003F03D06368002B00F09F8181
:1025B800236813F0020F54D07F4B9B6813F00C0F65
:1025C8003ED07D4B9B6803F00C03082B33D0E368A7
:1025D800002B68D0794B01221A60FFF71FFE0546D1
:1025E800754B1B6813F0020F54D1FFF717FE401B01
:1025F8000228F5D903207FE16F4A136843F480333A
:102608001360B5E76C4B1A6842F480221A601A68A6
:1026180042F480321A60ABE7FFF700FE0546664BCE
:102628001B6813F4003FC3D0FFF7F8FD401B642874
:10263800F5D9032060E1604B5B6813F4800FC6D1C5
:102648005D4B1B6813F0020F03D0E368012B40F0C9
:102658005081594A136823F0F803216943EAC103FA
:102668001360236813F0080F42D063696BB3534BB0
:102678000122C3F8802EFFF7D1FD05464E4B5B6F54
:1026880013F0020F34D1FFF7C9FD401B0228F5D91A
:10269800032031E1484A136823F0F803216943EA2B
:1026A800C1031360DDE7454B00221A60FFF7B6FD52
:1026B8000546414B1B6813F0020FD2D0FFF7AEFD61
:1026C800401B0228F5D9032016E13C4B0022C3F831
:1026D800802EFFF7A3FD0546374B5B6F13F0020F03
:1026E80006D0FFF79BFD401B0228F5D9032003E124
:1026F800236813F0040F77D02F4B1B6C13F0805F07
:1027080033D1002301932C4B1A6C42F080521A6487
:102718001B6C03F080530193019B0125284B1B6818
:1027280013F4807F23D0A368012B34D0052B38D035
:10273800214B1A6F22F001021A671A6F22F0040265
:102748001A67A368002B3DD0FFF768FD06461A4BB1
:102758001B6F13F0020F46D1FFF760FD801B41F29B
:1027680088339842F3D90320C6E00025D6E7144AF7
:10277800136843F480731360FFF750FD0646104B4F
:102788001B6813F4807FCED1FFF748FD801B022819
:10279800F5D90320B0E0084A136F43F0010313672B
:1027A800CFE7054B1A6F42F004021A671A6F42F01E
:1027B80001021A67C5E700BF00380240000047421F
:1027C80000700040FFF72AFD0646524B1B6F13F0BE
:1027D800020F08D0FFF722FD801B41F28833984290
:1027E800F3D9032088E0EDB9A369002B00F08380BA
:1027F800484A926802F00C02082A51D0022B17D0DE
:10280800454B00221A66FFF709FD0446414B1B6839
:1028180013F0007F42D0FFF701FD001B0228F5D915
:10282800032069E03B4A136C23F080531364DBE711
:10283800394B00221A66FFF7F1FC0546354B1B6839
:1028480013F0007F06D0FFF7E9FC401B0228F5D9FA
:10285800032051E0E369226A1343626A43EA821360
:10286800A26A5208013A43EA0243E26A43EA02636F
:10287800284A5360284B01221A66FFF7CFFC04460A
:10288800244B1B6813F0007F06D1FFF7C7FC001B21
:102898000228F5D903202FE000202DE000202BE0AE
:1028A800012B2BD01B4B5B6803F48001E26991423A
:1028B80026D103F03F02216A8A4223D1616A47F692
:1028C800C0721A40B2EB811F1ED103F44031A26AD4
:1028D8005208013AB1EB024F18D103F07063E26A73
:1028E800B3EB026F14D1002006E0012070470120ED
:1028F80002E0012000E0002002B070BD0120FBE7EB
:102908000120F9E70120F7E70120F5E70120F3E7C7
:102918000120F1E7003802400000474208B5334B78
:102928009B6803F00C03042B5BD0082B5BD12F4B67
:102938005A6802F03F025B6813F4800F2CD02B4BCF
:102948005868C0F388104FEA401CBCEB000C6EEBD3
:102958000E0E4FEA8E1343EA9C634FEA8C11B1EBDB
:102968000C0163EB0E03DB0043EA5173C90011EB62
:10297800000C43F10003590200234FEA4C2041EABE
:10298800DC51FDF705FC194B5B68C3F301430133C8
:102998005B00B0FBF3F008BD144B5868C0F3881017
:1029A8004FEA401CBCEB000C6EEB0E0E4FEA8E1388
:1029B80043EA9C634FEA8C11B1EB0C0163EB0E0305
:1029C800DB0043EA5173C90011EB000C43F100032B
:1029D800990200234FEA8C2041EA9C51FDF7D8FB6D
:1029E800D1E70348D7E70348D5E700BF00380240DE
:1029F80000127A000024F400002800F09B8070B5D3
:102A08000D4604464F4B1B6803F007038B4208D260
:102A1800CBB24C4A1370136803F007038B4240F0A3
:102A28008B80236813F0020F17D013F0040F04D023
:102A3800454A936843F4E0539360236813F0080F02
:102A480004D0414A936843F4604393603E4A9368D4
:102A580023F0F003A1680B439360236813F0010F80
:102A680032D06368012B21D09A1E012A25D9364A13
:102A7800126812F0020F61D033498A6822F003020B
:102A880013438B60FFF7CAFB06462F4B9B6803F086
:102A98000C036268B3EB820F16D0FFF7BFFB801BF5
:102AA80041F288339842F0D9032042E0264A12685E
:102AB80012F4003FE0D101203BE0234A126812F0F3
:102AC800007FD9D1012034E01E4B1B6803F00703B7
:102AD800AB4207D9EAB21B4B1A701B6803F0070315
:102AE800AB422DD1236813F0040F06D0164A936821
:102AF80023F4E053E1680B439360236813F0080F55
:102B080007D0114A936823F46043216943EAC1035B
:102B18009360FFF703FF0C4B9B68C3F303130B4A47
:102B2800D35CD8400A4B18600A4B1868FFF72AFB99
:102B3800002070BD012070470120FAE70120F8E766
:102B48000120F6E7003C024000380240C435000886
:102B580008000020040000202DE9F04782B0054657
:102B6800884617461E46FFF759FB0A9B1B1A03EBBC
:102B78000609FFF753FB8246284B1B68C3F3CB3388
:102B880009FB03F301932B689C6838EA04040CBF23
:102B980001230023BB423DD0B6F1FF3FF3D0FFF73E
:102BA8003DFBA0EB0A00484503D2019B73BB994645
:102BB800E9E72A68536823F0E00353606B68B3F5CC
:102BC800827F0BD0AB6AB3F5005F14D0012385F880
:102BD8005130002385F8503003201CE0AB68B3F572
:102BE800004F02D0B3F5806FECD12A68136823F048
:102BF80040031360E6E72A68136823F40053136060
:102C08002A68136843F400531360DFE7019B013B14
:102C18000193B8E7002002B0BDE8F0870800002063
:102C280070B584B004460D46164600920B46012244
:102C38000221FFF791FFD0B9174B1B68174AA2FB77
:102C480003235B0D4FF47A7202FB03F3039363686B
:102C5800B3F5827F11D0039B3BB1039B013B0393E8
:102C680023689B6813F0800FF5D104B070BD636DC5
:102C780043F0200363650320F7E700962B46002204
:102C880080212046FFF768FF0028EED0636D43F0EF
:102C9800200363650320E8E708000020819F5E1693
:102CA80000285AD010B50446436A33B94368B3F5CF
:102CB800827F05D00023C36102E0002303614361E2
:102CC8000023A36294F85130002B40D0022384F8EB
:102CD80051302268136823F040031360636803F4DB
:102CE8008273A26802F404421343E26802F40062A9
:102CF8001343226902F002021343626902F00102DF
:102D08001343A26902F400721343E26902F0380225
:102D18001343226A02F080021343A26A02F40052AB
:102D2800216813430B60638B03F00403626A02F0AB
:102D38001002216813434B602268D36923F40063AF
:102D4800D36100206065012384F8513010BD84F8F8
:102D580050302046FFF7DCF9B8E7012070472DE92D
:102D6800F04383B00446894690461D46FFF756FA5D
:102D780094F85130012B40F0CD800646DFB2B9F10E
:102D8800000F00F0C880B8F1000F00F0C48094F87C
:102D98005030012B00F0C380012384F85030032306
:102DA80084F8513000236365C4F83090A4F8348067
:102DB800A4F83680A363A387E38763642364A368C6
:102DC800B3F5004F1ED023681A6812F0400F03D1E4
:102DD8001A6842F040021A60E368B3F5006F1CD02D
:102DE800636813B1B8F1010F5FD1226B23681278C1
:102DF8001A73236B01332363E38E9BB2013B9BB2AF
:102E0800E38652E02268136823F0400313602268C7
:102E1800136843F480431360D5E7636813B1B8F1CE
:102E2800010F15D1226B23681288DA60236B0233F5
:102E38002363E38E9BB2013B9BB2E38608E0FFF776
:102E4800EDF9801BA84202D3B5F1FF3F15D1A5B11A
:102E5800E38E9BB2002B42D023689A6812F0020FCF
:102E6800EDD0226B1288DA60236B02332363E38E82
:102E78009BB2013B9BB2E386EAE7012384F8513019
:102E8800002384F85030032745E0226B12781A7328
:102E9800236B01332363B4F836C01FFA8CFC0CF1A2
:102EA800FF3C1FFA8CFCA4F836C0E38E9BB2B3B18A
:102EB80023689A6812F0020FE7D1FFF7AFF9801B79
:102EC800A84202D3B5F1FF3F01D1002DEDD1012376
:102ED80084F85130002384F8503003271BE0324631
:102EE80029462046FFF79CFE08B120236365A368A6
:102EF80033B901932368DA6801929B680193019BB7
:102F0800012384F85130002384F85030636D13B9DD
:102F1800002700E00227384603B0BDE8F083022707
:102F2800F9E72DE9F04383B00446884691461F46E9
:102F38000A9DFFF773F9064694F851306268012B31
:102F48000BD0D9B2B2F5827F40F00481A368002B80
:102F580040F00481042940F00381B8F1000F00F02B
:102F68000181B9F1000F00F0FF80002F00F0FE8012
:102F780094F85030012B00F0FB80012384F8503086
:102F880094F85130042B02D0052384F851300023E3
:102F98006365C4F83890E787A787C4F83080E78668
:102FA800A7862364636423681A6812F0400F03D16C
:102FB8001A6842F040021A60E368B3F5006F11D056
:102FC80063680BB1012F0BD1226B236812781A7337
:102FD800236B01332363E38E9BB2013B9BB2E386F1
:102FE800012771E063680BB1012F0BD1226B2368B5
:102FF8001288DA60236B02332363E38E9BB2013BB2
:103008009BB2E38601271BE023689A6812F0010F40
:103018000ED0E28F92B25AB1DA68A36B1A80A36B12
:103028000233A363E38F9BB2013B9BB2E387012783
:10303800FFF7F4F8801BA84202D3B5F1FF3F1ED179
:10304800E38E9BB21BB9E38F9BB2002B62D023683F
:103058009A6812F0020FD7D0E28E92B2002AD3D02B
:10306800002FD1D0226B1288DA60236B02332363DE
:10307800E38E9BB2013B9BB2E3860027C4E70123A2
:1030880084F85130002384F85030032063E023682B
:103098009A6812F0010F0ED0E28F92B25AB1DA6834
:1030A800A36B1A70A36B0133A363E38F9BB2013B3D
:1030B8009BB2E3870127FFF7B1F8831BAB4202D32A
:1030C800B5F1FF3F1ED1EDB1E38E9BB213B9E38F8B
:1030D8009BB2FBB123689A6812F0020FD7D0E28E38
:1030E80092B2002AD3D0002FD1D0226B12781A7353
:1030F800236B01332363E38E9BB2013B9BB2E386D0
:103108000027C4E7012384F85130002384F85030A5
:10311800032020E0324629462046FFF781FD90B97A
:10312800A36833B901932368DA6801929B68019315
:10313800019B012384F85130002384F85030636DDB
:103148004BB1012007E020236365002384F8503049
:10315800012000E0022003B0BDE8F0830220FAE776
:103168000220F8E70120F6E70120F4E70120F2E762
:103178000220F0E7034AD2F8883043F47003C2F81B
:103188008830704700ED00E02DE9F047089D0F46B4
:1031980004468C46002B48D18A42164661D9B2FAB9
:1031A80082F34BB1C3F1200201FA03FC20FA02F2C8
:1031B8009E4042EA0C0C9C404FEA164EB7B2BCFB4C
:1031C800FEF1220C0EFB11CC42EA0C4201FB07F087
:1031D800904209D9B21801F1FF3C80F0EE8090428C
:1031E80040F2EB8002393244121AA4B2B2FBFEF06C
:1031F8000EFB102244EA024400FB07F7A74209D954
:10320800341900F1FF3280F0DA80A74240F2D7800B
:103218003444023840EA0140E41B00211DB1DC407F
:103228000023C5E90043BDE8F0878B4206D90DB1FC
:10323800C5E9000100210846BDE8F087B3FA83F12B
:10324800002948D1BB4202D3824200F20781841A86
:1032580067EB030201209446002DE4D0C5E9004C39
:10326800E1E7002A00F09280B2FA82F3002B40F0E6
:10327800A8808A1A4FEA164E1FFA86FC0121200CF4
:10328800B2FBFEF70EFB172240EA02420CFB07F0E6
:10329800904207D9B21807F1FF3802D2904200F2E3
:1032A800E2804746121AA4B2B2FBFEF00EFB1022CF
:1032B80044EA02440CFB00FCA44507D9341900F188
:1032C800FF3202D2A44500F2CB801046A4EB0C04D6
:1032D80040EA0740A2E7C1F120068B4022FA06FC2B
:1032E8004CEA030C07FA01F420FA06F3F7404FEA18
:1032F8001C49234300FA01F81FFA8CFEB7FBF9F0CA
:103308001C0C09FB107744EA074400FB0EF7A742A0
:1033180002FA01F20AD91CEB040400F1FF3A80F02A
:103328009B80A74240F2988002386444E41B9FB215
:10333800B4FBF9F309FB134447EA044403FB0EFE0C
:10334800A64509D91CEB040403F1FF3780F08280FD
:10335800A6457FD9023B644443EA0040A4EB0E042F
:10336800A0FB02E7BC427346B94663D360D05DB1A7
:10337800B8EB030264EB090404FA06F622FA01F337
:103388001E43CC40C5E9006400214CE762084808A8
:1033980042EAC1710B0C43EA00438AB242EA034293
:1033A800B3FBF6F1E407B4463746B6461F23B0FB35
:1033B800F6F0D21B41EA004161E7614614E7104686
:1033C80028E7C3F1200120FA01F29E4027FA01F113
:1033D8009F403A434FEA164E1FFA86FCB1FBFEF7B0
:1033E8000EFB1710110C41EA004107FB0CF8884549
:1033F80004FA03F43AD9711807F1FF3001D288456D
:103408001FD8A1EB0801B1FBFEF808FB0CF70EFB77
:10341800181192B242EA0142BA422FD2B21808F108
:10342800FF31C6D2BA42C4D2A8F102013244C0E781
:10343800F0459CD2BEEB020367EB0C070138B94696
:1034480095E7A6EB08084144B81EB1FBFEF808FB57
:103458000CF7DCE73B467FE7504667E70846FBE6A4
:103468003444023832E7023F32441BE7A1EB08013B
:103478003846B1FBFEF808FB0CF7C8E7414698E769
:1034880010B501390244904201D1002005E00378CB
:1034980011F8014FA34201D0181B10BD0130F2E70B
:1034A800C9B20346184613F8012B12B18A42F9D162
:1034B8007047002918BF002070470A44914200F164
:1034C800FF3300D1704710B511F8014B03F8014FD5
:1034D8009142F9D110BD0000F8B500BFF8BC08BC96
:1034E8009E467047F8B500BFF8BC08BC9E467047BA
:1034F8004641543332202020000000002A2B2C3A69
:103508003B3C3D3E5B5D7C223F7F000053544D3386
:103518003246343131205344204361726420535081
:10352800492054657374204F4B210D0A0000000098
:10353800746573742E74787400000000809A454195
:103548008E418F804545454949498E8F9092924FCB
:10355800994F555559999A9B9C9D9E9F41494F5506
:10356800A5A5A6A7A8A9AAABACADAEAFB0B1B2B39A
:10357800B4B5B6B7B8B9BABBBCBDBEBFC0C1C2C38B
:10358800C4C5C6C7C8C9CACBCCCDCECFD0D1D2D37B
:10359800D4D5D6D7D8D9DADBDCDDDEDFE0E1E2E36B
:1035A800E4E5E6E7E8E9EAEBECEDEEEFF0F1F2F35B
:1035B800F4F5F6F7F8F9FAFBFCFDFEFF0000000051
:0C35C800000000000102030406070809CF
:0835D400F8CBFF7F01000000AD
:0435DC004902000898
:0435E00021020008BC
:0C35E40001010000100000000024F400B1
:040000050800038963
:00000001FF
