:020000040800F2
:100000000000022079030008CB030008CD0300089C
:10001000CF030008D1030008D3030008000000004C
:10002000000000000000000000000000D5030008F0
:10003000D703000800000000D9030008DB03000814
:10004000C9030008C9030008C9030008C903000860
:10005000C9030008C9030008E3030008C903000836
:10006000C9030008C9030008C9030008C903000840
:10007000C9030008C9030008C9030008C903000830
:10008000C9030008C9030008C903000800000000F4
:10009000000000000000000000000000C90300088C
:1000A000C9030008C9030008C9030008C903000800
:1000B000C9030008C9030008C9030008C9030008F0
:1000C000C9030008C9030008C9030008C9030008E0
:1000D000C9030008C9030008C903000800000000A4
:1000E000C9030008C9030008C90300080000000094
:1000F000000000000000000000000000C90300082C
:1001000000000000C9030008C9030008C903000873
:1001100000000000000000000000000000000000DF
:10012000ED030008C9030008FD030008C903000827
:10013000C9030008000000000000000000000000EB
:10014000000000000000000000000000C9030008DB
:10015000C9030008C9030008C9030008C90300084F
:10016000C9030008C90300080000000000000000E7
:10017000000000000000000000000000000000007F
:1001800000000000C903000800000000000000009B
:08019000C9030008C9030008BF
:1001980053B94AB9002908BF00281CBF4FF0FF31E6
:1001A8004FF0FF3000F00CB8ADF1080C6DE904CE4B
:1001B80001F0C8FDDDF804E0DDE9022304B0704772
:1001C800704700BF0348044B834202D0034B03B17E
:1001D800184770470C0000200C00002000000000A9
:1001E8000548064B1B1AD90F01EBA301491002D091
:1001F800034B03B1184770470C0000200C00002087
:100208000000000010B5064C237843B9FFF7DAFF69
:10021800044B13B10448AFF300800123237010BDD1
:100228000C000020000000004420000808B5054B21
:100238001BB105490548AFF30080BDE80840FFF74A
:10024800CFBF00BF000000001000002044200008BD
:1002580002440346934200D1704703F8011BF9E7B3
:1002680070B50D4B0D4D5B1B9C100026A64209D1A5
:1002780001F0E4FE0A4D0B4B5B1B9C100026A642C6
:1002880005D170BD55F8043B98470136EEE755F89F
:10029800043B98470136F2E77C2000087C200008E0
:1002A8007C2000088020000872B6FEE710B594B0E4
:1002B80008AC302200212046FFF7CAFF0023039331
:1002C800049305930693079301931F4A116C41F019
:1002D80080511164126C02F080520192019A0293CB
:1002E8001A4B1A6842F440421A601B6803F44043F0
:1002F8000293029B012308934FF48033099302234E
:100308000E934FF480020F9208221092C822119285
:10031800129304231393204600F050FF80B90F2353
:10032800039302230493002305934FF4805206920B
:100338000793032103A801F0ABF918B914B010BD55
:10034800FFF7B2FFFFF7B0FF00380240007000402F
:1003580008B500F03BFBFFF7A9FF00F01BFA00F01F
:10036800F7F900F075FA00F0A3F800F0B7F8FCE729
:10037800DFF834D001F0DCFC0C480D490D4A0023AD
:1003880002E0D458C4500433C4188C42F9D30A4A42
:100398000A4C002301E013600432A242FBD3FFF7AA
:1003A8005FFFFFF7D5FF7047000002200000002024
:1003B8000C000020842000080C0000208001002090
:1003C800FEE7FEE7FEE7FEE7FEE7FEE77047704759
:1003D800704708B500F014FB08BD08B5012000F00F
:1003E800DFFE08BD08B5024800F0F8FC08BD00BFF4
:1003F800C400002008B5024800F0F0FC08BD00BFAA
:10040800640000200C4B40F040001870080E587033
:10041800C1F307409870C1F30720D870197142F0F2
:1004280001025A71062303E0034AFF21D154013324
:10043800132BF9D9704700BF440000200620132869
:1004480005D8044B1B56002B03DA0130F7E74FF0B1
:10045800FF3070473000002010B50446074B0022DB
:100468001A7000F0D9FA064B1860064B1C7014235A
:10047800054A0649064801F005FB10BD600000204A
:100488005C000020610000203000002044000020B3
:10049800240100200268044B9A4200D07047034BA5
:1004A80001221A70FAE700BF003001406000002006
:1004B80010B50124064B1C7000F0AEFA054B18600D
:1004C80022464FF40051044800F05AFE10BD00BF08
:1004D80061000020280000200008024010B500F04C
:1004E8009BFA0446904B1B780D2B47D08E4B1B78FC
:1004F8000E2B3AD04FF4FA728B4B1B780E2B04D08C
:100508008A4B1B68E31A93423AD2874B1B78022B1B
:1005180013D0854B1B78042B0FD0834B1B78062BED
:100528000BD0814B1B78082B07D07F4B1B780A2BED
:1005380003D07D4B1B780C2B08D17D4B1B68E31A2D
:10054800B3F57A7F24D87B4B1B783BB3764B1B786B
:100558000E2B00F2E580DFE803F0212C2E323B4B16
:100568005578818D97BAC321210000224FF400519C
:10057800714800F005FE4FF4FA72BDE76422BBE74C
:100588006A4B1C604FF400516B4800F0FFFDBCE75C
:100598006A4801F025FB644B0E221A7010BD684AA8
:1005A800FF21D1540133132BF9D90220FFF754FF4F
:1005B800F4E70023F7E75C4B03221A70EEE7952275
:1005C80000210846FFF71EFF0420FFF745FFE5E777
:1005D800FFF734FF002803DB5A4B1B5C012B03D0C9
:1005E800514B0E221A70D9E74F4B05221A70D5E7E6
:1005F80087224FF4D5710820FFF704FF0620FFF784
:100608002BFFCBE7FFF71AFF002803DB4D4B1B5CE2
:10061800012B03D0444B0E221A70BFE7031D132B86
:100628000DD8431C474AD15C474B1970811C515C5B
:100638005970C11C515C99700430125CDA70434BDC
:100648001C60394B07221A70A8E7FF2200213720C7
:10065800FFF7D8FE0820FFF7FFFE9FE7FFF7EEFE43
:10066800002803DB304B09221A7097E72E4B0E2225
:100678001A7093E7FF224FF080412920FFF7C2FE4E
:100688000A20FFF7E9FE89E7FFF7D8FE00281ADB02
:100698002C4B1B5C1BB9244B0B221A707EE7012BD9
:1006A80003D0214B0E221A7078E7284B1B68E41AF6
:1006B800B4F57A7F03D91C4B0E221A706EE71A4BD9
:1006C80007221A706AE7184B0E221A7066E7FF2293
:1006D80000213A20FFF796FE0C20FFF7BDFE5DE7EC
:1006E800FFF7ACFE002817DB164B1B5CA3B9031DF4
:1006F800132B0DD8431C134AD15C134B1970811C62
:10070800515C5970C11C515C99700430125CDA70EC
:10071800054B0D221A7041E7034B0E221A703DE774
:10072800014B0E221A7039E76100002028000020D2
:100738005C00002060000020000802402401002026
:1007480044000020300000202C0000205800002029
:1007580010B582B0002401940D4B1A6B42F480024C
:100768001A631B6B03F480030193019B2246214605
:10077800382000F0ABF9382000F0B8F922462146BD
:100788003A2000F0A3F93A2000F0B0F902B010BD09
:1007980000380240F0B58BB005AD002405940694EE
:1007A8000794089409940194264B1A6B42F00402AA
:1007B8001A631A6B02F004020192019A02941A6BEE
:1007C80042F080021A631A6B02F080020292029AC7
:1007D80003941A6B42F001021A631A6B02F00102C9
:1007E8000392039A04941A6B42F002021A631B6B79
:1007F80003F002030493049B134F22464FF4005165
:10080800384600F0BDFC4FF40053059301260696C8
:10081800079408942946384600F0CEFB05964FF415
:100828004413069307942946084800F0C5FB22465E
:100838002146062000F04AF9062000F057F90BB0CF
:10084800F0BD00BF0038024000080240000402402A
:1008580008B50E480E4B03604FF4827343600023C3
:100868008360C360036143614FF480228261302258
:10087800C2610362436283620A23C36201F0A2F881
:1008880000B908BDFFF710FDFBE700BF24010020F9
:100898000030014030B589B00023039304930593D9
:1008A8000693079302682F4B9A4201D009B030BDD6
:1008B80004460025019503F584335A6C42F48052AE
:1008C8005A645A6C02F480520192019A02951A6B8A
:1008D80042F001021A631B6B03F001030293029BAF
:1008E800F02303930223049303230693052307931A
:1008F80003A91D4800F060FB1C481D4B03604FF026
:10090800C06343608560C5604FF4806303614561DF
:100918008561C5610562456200F07CF9D8B9134B61
:10092800E3649C631348144B03604FF08063436097
:10093800402383600023C3604FF4806202614361F7
:100948008361C3610362436200F064F930B9094B03
:10095800A3649C63AAE7FFF7A7FCE0E7FFF7A4FC02
:10096800F5E700BF0030014000000240C40000204D
:100978001064024064000020406402407047000098
:1009880010B504460E4B1A784FF47A73B3FBF2F3A2
:100998000C4A1068B0FBF3F000F0ACF868B90F2C03
:1009A80001D901200AE0002221464FF0FF3000F073
:1009B8008DF8054B1C60002000E0012010BD00BF31
:1009C80000000020080000200400002008B50B4BA0
:1009D8001A6842F400721A601A6842F480621A6057
:1009E8001A6842F480721A60032000F05DF80F2044
:1009F800FFF7C6FFFFF7C2FF002008BD003C02401A
:100A0800034A1168034B1B780B441360704700BFFF
:100A18007C01002000000020014B1868704700BFCF
:100A28007C010020002807DB00F01F024009012399
:100A38009340024A42F82030704700BF00E100E0CE
:100A4800002808DB0901C9B200F1604000F56140E7
:100A580080F80013704700F00F000901C9B2014B7C
:100A68001954704714ED00E000B500F00700C0F11C
:100A7800070CBCF1040F28BF4FF0040C031D062B14
:100A88000FD9C31E4FF0FF3E0EFA0CF021EA000109
:100A980099400EFA03FE22EA0E0241EA02005DF8CE
:100AA80004FB0023EEE70000074AD36823F4E06361
:100AB8001B041B0C000200F4E060034343F0BF6317
:100AC80043F40033D360704700ED00E010B50446EE
:100AD800054BD868C0F30220FFF7C6FF0146204641
:100AE800FFF7AEFF10BD00BF00ED00E008B5FFF74F
:100AF80099FF08BD0138B0F1807F0BD24FF0E02399
:100B08005861054AF02182F82310002098610722D5
:100B18001A6170470120704700ED00E030B40568A5
:100B28002C6824F480242C60046863608368402B5C
:100B380005D0036899600368DA6030BC70470368C1
:100B48009A600368D960F8E710B40368D9B210391D
:100B58000A4AA2FB01421209094CA25CC2655F293C
:100B680007D96FF3090304338365806D5DF8044B7F
:100B780070476FF309038365F7E700BFABAAAAAA1A
:100B88005C200008836A826992B9012B0AD0022B83
:100B980002D00BB100207047C36A13F0807F28D1C0
:100BA80000207047C36AB3F1C07F24D0002070478B
:100BB800B2F5005F09D0022B25D9032B25D1C36AD2
:100BC80013F0807F23D100207047032B03D8DFE880
:100BD80003F01404140A00207047C36A13F0807FDE
:100BE8000DD100207047C36AB3F1C07F09D000203F
:100BF800704701207047012070470120704701208D
:100C0800704701207047012070470020704701207D
:100C18007047000070B50446FFF7FEFE002C5BD05D
:100C28000546022384F83530002384F834302268DE
:100C3800136823F00103136023681A6812F0010F88
:100C48000AD0FFF7E9FE431B052BF5D9202363657E
:100C5800032084F8350070BD1A6820491140626885
:100C6800A0680243E06802432069024360690243C6
:100C7800A0690243E0690243206A02430A43616AA9
:100C880004291ED01A602668756925F00705636A6D
:100C98001D43042B07D1A36A1D43E36A1BB12046F9
:100CA800FFF770FF90B975612046FFF74DFFE26DC1
:100CB8003F239340836000206065012384F835302A
:100CC800C9E7E16A206B01430A43DBE74023636518
:100CD800012084F83500BEE70120BCE73F8010F012
:100CE80038B50446856D90F8340001282AD00120D3
:100CF80084F8340094F83500012804D0002384F8DF
:100D08003430022038BD022084F8350000206065A8
:100D18002046FFF703FFE26D3F239340AB60226854
:100D2800136843F016031360236C23B12268136819
:100D380043F0080313602268136843F0010313604B
:100D48000020DFE70220DDE770B50446866DFFF777
:100D580063FE94F83530022B06D0802363650023A8
:100D680084F83430012070BD05462268136823F0EA
:100D7800160313602268536923F080035361236CC0
:100D8800E3B12268136823F008031360226813682C
:100D980023F00103136023681B6813F0010F11D0BF
:100DA800FFF73AFE431B052BF5D920236365032083
:100DB80084F83500002384F83430D4E7A36C002B82
:100DC800DFD1E3E7E26D3F239340B360012384F86A
:100DD8003530002084F83400C5E70000F0B583B052
:100DE800044600230193724B1D68724BA3FB053523
:100DF800AD0A876D3E68C26D08239340334210D018
:100E080003681A6812F0040F0BD01A6822F0040263
:100E18001A60C26D08239340BB60436D43F0010321
:100E28004365E26D01239340334209D02268526939
:100E380012F0800F04D0BB60636D43F0020363655A
:100E4800E26D04239340334209D02268126812F0FD
:100E5800020F04D0BB60636D43F004036365E26D69
:100E680010239340334224D02268126812F0080FEE
:100E78001FD0BB6023681A6812F4802F0DD01B683E
:100E880013F4002F04D1236C9BB12046984710E03F
:100E9800A36C73B1204698470BE01A6812F4807F60
:100EA80003D11A6822F008021A60236C0BB120469D
:100EB8009847E26D20239340334254D02268126849
:100EC80012F0100F4FD0BB6094F83530052B0ED0C0
:100ED80023681A6812F4802F33D01B6813F4002F8C
:100EE8002AD1636C002B3ED0204698473BE022680D
:100EF800136823F0160313602268536923F08003F4
:100F08005361236CA3B12268136823F008031360AC
:100F1800E26D3F239340BB60012384F83530002302
:100F280084F83430236D002B3FD0204698473CE0AE
:100F3800A36C002BE7D1EBE7E36BA3B120469847FE
:100F480011E01A6812F4807F09D11A6822F01002A1
:100F58001A60012384F83530002384F83430E36BB9
:100F68000BB120469847636DFBB1636D13F0010F19
:100F780017D0052384F835302268136823F001035D
:100F88001360019B01330193AB4204D823681B68AB
:100F980013F0010FF5D1012384F83530002384F8CC
:100FA8003430E36C0BB12046984703B0F0BD00BF66
:100FB80008000020B5814E1B00230F2B00F2D780BC
:100FC80070B582B065E085684FEA430E032404FAE1
:100FD8000EF425EA0405CC6804FA0EF42C43846068
:100FE800446824EA02044A68C2F300129A40224381
:100FF80042605CE0DC08083450F8242003F0070560
:10100800AD004FF00F0E0EFA05FE22EA0E0E0A6929
:10101800AA4042EA0E0240F824205CE0042200E0E4
:10102800002202FA0EF22A430234514D45F82420D8
:10103800504A94686FEA0C0224EA0C054E6816F4CC
:10104800801F01D04CEA04054A4CA560E46802EA16
:1010580004054E6816F4001F01D04CEA0405454CFF
:10106800E560646802EA04054E6816F4003F01D0A2
:101078004CEA04053F4C6560246822404D6815F42D
:10108800803F01D04CEA04023A4C226001330F2B16
:101098006BD801229A400C6804EA020C32EA040474
:1010A800F4D14C6804F00304013C012C8BD94A6844
:1010B80002F00302032A09D0C4685D000322AA4093
:1010C80024EA02048A68AA402243C2604A6802F0FD
:1010D8000302022A8ED004684FEA430E032202FA62
:1010E8000EF224EA02044A6802F0030202FA0EF23F
:1010F800224302604A6812F4403FC7D0002201929E
:101108001D4A546C44F480445464526C02F4804286
:101118000192019A9C08A51C154A52F8255003F023
:10112800030E4FEA8E0E0F2202FA0EF225EA02058E
:10113800124A90423FF474AF02F5806290420ED09A
:1011480002F5806290420CD002F5806290420AD08B
:1011580002F5806290423FF461AF072261E7012205
:101168005FE702225DE703225BE702B070BD7047CC
:1011780000380140003C01400038024000000240B5
:101188000AB181617047090481617047436901EAC6
:10119800030221EA030141EA024181617047704775
:1011A80008B5054B5B69034200D108BD024B586185
:1011B800FFF7F5FFF9E700BF003C0140002800F009
:1011C800E08170B582B00446036813F0010F3BD08C
:1011D8009F4B9B6803F00C03042B2CD09C4B9B6803
:1011E80003F00C03082B21D06368B3F5803F4FD080
:1011F800B3F5A02F52D0964B1A6822F480321A60A9
:101208001A6822F480221A606368002B50D0FFF716
:1012180003FC05468E4B1B6813F4003F14D1FFF7FF
:10122800FBFB401B6428F5D90320B1E1884B5B68C0
:1012380013F4800FD8D0864B1B6813F4003F03D0FB
:101248006368002B00F09F81236813F0020F54D0CD
:101258007F4B9B6813F00C0F3ED07D4B9B6803F0CF
:101268000C03082B33D0E368002B68D0794B01229C
:101278001A60FFF7D1FB0546754B1B6813F0020F88
:1012880054D1FFF7C9FB401B0228F5D903207FE1A1
:101298006F4A136843F480331360B5E76C4B1A68E0
:1012A80042F480221A601A6842F480321A60ABE76E
:1012B800FFF7B2FB0546664B1B6813F4003FC3D02B
:1012C800FFF7AAFB401B6428F5D9032060E1604BB7
:1012D8005B6813F4800FC6D15D4B1B6813F0020FD7
:1012E80003D0E368012B40F05081594A136823F07A
:1012F800F803216943EAC1031360236813F0080F58
:1013080042D063696BB3534B0122C3F8802EFFF7B9
:1013180083FB05464E4B5B6F13F0020F34D1FFF78A
:101328007BFB401B0228F5D9032031E1484A1368AA
:1013380023F0F803216943EAC1031360DDE7454B55
:1013480000221A60FFF768FB0546414B1B6813F043
:10135800020FD2D0FFF760FB401B0228F5D903200B
:1013680016E13C4B0022C3F8802EFFF755FB0546DB
:10137800374B5B6F13F0020F06D0FFF74DFB401B96
:101388000228F5D9032003E1236813F0040F77D06E
:101398002F4B1B6C13F0805F33D1002301932C4B30
:1013A8001A6C42F080521A641B6C03F0805301934C
:1013B800019B0125284B1B6813F4807F23D0A36869
:1013C800012B34D0052B38D0214B1A6F22F00102A3
:1013D8001A671A6F22F004021A67A368002B3DD01F
:1013E800FFF71AFB06461A4B1B6F13F0020F46D184
:1013F800FFF712FB801B41F288339842F3D9032090
:10140800C6E00025D6E7144A136843F480731360D6
:10141800FFF702FB0646104B1B6813F4807FCED102
:10142800FFF7FAFA801B0228F5D90320B0E0084A32
:10143800136F43F001031367CFE7054B1A6F42F0B0
:1014480004021A671A6F42F001021A67C5E700BF63
:10145800003802400000474200700040FFF7DCFA05
:101468000646524B1B6F13F0020F08D0FFF7D4FA51
:10147800801B41F288339842F3D9032088E0EDB904
:10148800A369002B00F08380484A926802F00C029E
:10149800082A51D0022B17D0454B00221A66FFF7B5
:1014A800BBFA0446414B1B6813F0007F42D0FFF79C
:1014B800B3FA001B0228F5D9032069E03B4A136CF4
:1014C80023F080531364DBE7394B00221A66FFF7D9
:1014D800A3FA0546354B1B6813F0007F06D0FFF7CB
:1014E8009BFA401B0228F5D9032051E0E369226AE0
:1014F8001343626A43EA8213A26A5208013A43EA32
:101508000243E26A43EA0263284A5360284B0122F5
:101518001A66FFF781FA0446244B1B6813F0007F14
:1015280006D1FFF779FA001B0228F5D903202FE02E
:1015380000202DE000202BE0012B2BD01B4B5B68FB
:1015480003F48001E269914226D103F03F02216A47
:101558008A4223D1616A47F6C0721A40B2EB811FF2
:101568001ED103F44031A26A5208013AB1EB024F8E
:1015780018D103F07063E26AB3EB026F14D1002054
:1015880006E001207047012002E0012000E0002071
:1015980002B070BD0120FBE70120F9E70120F7E761
:1015A8000120F5E70120F3E70120F1E700380240C8
:1015B8000000474208B5334B9B6803F00C03042B2B
:1015C8005BD0082B5BD12F4B5A6802F03F025B6857
:1015D80013F4800F2CD02B4B5868C0F388104FEAB7
:1015E800401CBCEB000C6EEB0E0E4FEA8E1343EA68
:1015F8009C634FEA8C11B1EB0C0163EB0E03DB002B
:1016080043EA5173C90011EB000C43F1000359027E
:1016180000234FEA4C2041EADC51FEF7B9FD194B93
:101628005B68C3F3014301335B00B0FBF3F008BD13
:10163800144B5868C0F388104FEA401CBCEB000CF0
:101648006EEB0E0E4FEA8E1343EA9C634FEA8C1141
:10165800B1EB0C0163EB0E03DB0043EA5173C900E5
:1016680011EB000C43F10003990200234FEA8C2090
:1016780041EA9C51FEF78CFDD1E70348D7E70348C0
:10168800D5E700BF0038024000127A000024F400B9
:10169800002800F09B8070B50D4604464F4B1B6830
:1016A80003F007038B4208D2CBB24C4A137013687D
:1016B80003F007038B4240F08B80236813F0020F7E
:1016C80017D013F0040F04D0454A936843F4E0534D
:1016D8009360236813F0080F04D0414A936843F4D9
:1016E800604393603E4A936823F0F003A1680B437C
:1016F8009360236813F0010F32D06368012B21D067
:101708009A1E012A25D9364A126812F0020F61D0B2
:1017180033498A6822F0030213438B60FFF77CF990
:1017280006462F4B9B6803F00C036268B3EB820FED
:1017380016D0FFF771F9801B41F288339842F0D92F
:10174800032042E0264A126812F4003FE0D101204B
:101758003BE0234A126812F0007FD9D1012034E01F
:101768001E4B1B6803F00703AB4207D9EAB21B4BB9
:101778001A701B6803F00703AB422DD1236813F0DE
:10178800040F06D0164A936823F4E053E1680B432C
:101798009360236813F0080F07D0114A936823F465
:1017A8006043216943EAC1039360FFF703FF0C4BD1
:1017B8009B68C3F303130B4AD35CD8400A4B1860E9
:1017C8000A4B1868FFF7DCF8002070BD012070474D
:1017D8000120FAE70120F8E70120F6E7003C024083
:1017E800003802406420000808000020040000209F
:1017F8002DE9F04782B00546884617461E46FFF792
:101808000BF90A9B1B1A03EB0609FFF705F9824639
:10181800284B1B68C3F3CB3309FB03F301932B68F5
:101828009C6838EA04040CBF01230023BB423DD066
:10183800B6F1FF3FF3D0FFF7EFF8A0EB0A004845F9
:1018480003D2019B73BB9946E9E72A68536823F0E2
:10185800E00353606B68B3F5827F0BD0AB6AB3F5D6
:10186800005F14D0012385F85130002385F85030EB
:1018780003201CE0AB68B3F5004F02D0B3F5806FCE
:10188800ECD12A68136823F040031360E6E72A685E
:10189800136823F4005313602A68136843F4005351
:1018A8001360DFE7019B013B0193B8E7002002B01A
:1018B800BDE8F0870800002070B584B004460D46E6
:1018C800164600920B4601220221FFF791FFD0B97C
:1018D800174B1B68174AA2FB03235B0D4FF47A7260
:1018E80002FB03F303936368B3F5827F11D0039B74
:1018F8003BB1039B013B039323689B6813F0800F64
:10190800F5D104B070BD636D43F020036365032017
:10191800F7E700962B46002280212046FFF768FF54
:101928000028EED0636D43F0200363650320E8E7E9
:1019380008000020819F5E1610B582B004460B4651
:101948004168B1F5827F14D06168B1F5827F2AD1F0
:10195800A168B1F5806F19D000920022802120463D
:10196800FFF746FF30B3636D43F020036365032040
:1019780020E08168B1F5004F02D0B1F5806FE3D166
:101988002068016821F040010160DDE70092002233
:1019980001212046FFF72CFF60B1636D43F020035F
:1019A8006365032006E00092002201212046FFF72C
:1019B8001FFF08B902B010BD636D43F020036365D3
:1019C8000320F7E700285AD010B50446436A33B914
:1019D8004368B3F5827F05D00023C36102E000238A
:1019E800036143610023A36294F85130002B40D077
:1019F800022384F851302268136823F040031360EF
:101A0800636803F48273A26802F404421343E26831
:101A180002F400621343226902F00202134362696E
:101A280002F001021343A26902F400721343E2694F
:101A380002F038021343226A02F080021343A26ABA
:101A480002F40052216813430B60638B03F0040314
:101A5800626A02F01002216813434B602268D3695E
:101A680023F40063D36100206065012384F85130BA
:101A780010BD84F850302046FEF70CFFB8E701206F
:101A88007047000038B5044690F851006568012891
:101A98000DD05FFA80FCB5F5827F40F08980A068A0
:101AA800002840F08780BCF1040F40F085800029B1
:101AB80000F08480002A00F08380002B00F08280F0
:101AC80094F8500001287FD0012084F8500094F841
:101AD8005100042802D0052084F8510000206065D8
:101AE8002163A386E386A263A387E38720646064F7
:101AF80094F85130042B1DD0E36C344A1A64E36C1B
:101B0800334ADA63E36C334ADA64E36C00221A6519
:101B18002168E38F9BB2A26B0C31E06CFFF7E0F811
:101B280078B1636D43F010036365002384F8503087
:101B380001203EE0E36C284A1A64E36C274ADA6322
:101B4800E0E72268536843F001035360A26C002366
:101B58001364A26CD363A26CD364A26C136522686D
:101B6800E38E9BB20C32216BA06CFFF7B9F8B0B9C9
:101B780023681A6812F0400F03D11A6842F0400235
:101B88001A60002384F850302268536843F0200319
:101B980053602268536843F00203536009E0636DA1
:101BA80043F010036365002384F85030012000E0FF
:101BB800022038BD0220FCE70220FAE70120F8E7FE
:101BC8000120F6E70120F4E70220F2E73F1C0008B5
:101BD800DB1C00084B1C0008331C00086D1C0008A7
:101BE80038B50446806C48B1FFF7AEF8054630B109
:101BF800636D43F010036365012500E00025E06C88
:101C080038B1FFF7A1F820B1636D43F010036365A5
:101C180001252268536823F003035360012384F8E5
:101C28005130284638BD7047704708B5806BFFF7BC
:101C3800FBFF08BD704708B5806BFFF7FBFF08BDC9
:101C4800704708B5806B0268536823F0030353603C
:101C5800436D43F010034365012380F85130FFF7CB
:101C6800EFFF08BD38B50546846BFEF7D5FE2B6837
:101C78001B6813F4807F1ED1024621684B6823F04D
:101C880020034B60A3681BB96368B3F5827F16D045
:101C980021684B6823F001034B6064212046FFF75D
:101CA8004BFE08B1202363650023E387012384F8F2
:101CB8005130636D4BB92046FFF7B5FF38BD216839
:101CC8004B6823F003034B60E7E72046FFF7B8FFB4
:101CD800F4E738B50546846BFEF79EFE2B681B6853
:101CE80013F4807F1BD1024621684B6823F0200340
:101CF8004B6064212046FFF7DFFD18B1636D43F0A8
:101D0800200363652268536823F0030353600023AC
:101D1800E386E387012384F85130636D1BB92046BD
:101D2800FEF7B8FB38BD2046FFF78AFFFAE7000048
:101D3800034AD2F8883043F47003C2F888307047F9
:101D480000ED00E02DE9F047089D0F4604468C465B
:101D5800002B48D18A42164661D9B2FA82F34BB1B8
:101D6800C3F1200201FA03FC20FA02F29E4042EA83
:101D78000C0C9C404FEA164EB7B2BCFBFEF1220C8D
:101D88000EFB11CC42EA0C4201FB07F0904209D944
:101D9800B21801F1FF3C80F0EE80904240F2EB80F7
:101DA80002393244121AA4B2B2FBFEF00EFB102222
:101DB80044EA024400FB07F7A74209D9341900F1A5
:101DC800FF3280F0DA80A74240F2D78034440238EC
:101DD80040EA0140E41B00211DB1DC400023C5E9B5
:101DE8000043BDE8F0878B4206D90DB1C5E9000173
:101DF80000210846BDE8F087B3FA83F1002948D1ED
:101E0800BB4202D3824200F20781841A67EB0302C5
:101E180001209446002DE4D0C5E9004CE1E7002AF2
:101E280000F09280B2FA82F3002B40F0A8808A1A60
:101E38004FEA164E1FFA86FC0121200CB2FBFEF772
:101E48000EFB172240EA02420CFB07F0904207D92A
:101E5800B21807F1FF3802D2904200F2E2804746FA
:101E6800121AA4B2B2FBFEF00EFB102244EA02449E
:101E78000CFB00FCA44507D9341900F1FF3202D24B
:101E8800A44500F2CB801046A4EB0C0440EA0740BE
:101E9800A2E7C1F120068B4022FA06FC4CEA030CAB
:101EA80007FA01F420FA06F3F7404FEA1C492343E6
:101EB80000FA01F81FFA8CFEB7FBF9F01C0C09FBBD
:101EC800107744EA074400FB0EF7A74202FA01F232
:101ED8000AD91CEB040400F1FF3A80F09B80A7426A
:101EE80040F2988002386444E41B9FB2B4FBF9F3D3
:101EF80009FB134447EA044403FB0EFEA64509D92F
:101F08001CEB040403F1FF3780F08280A6457FD9DB
:101F1800023B644443EA0040A4EB0E04A0FB02E742
:101F2800BC427346B94663D360D05DB1B8EB0302D7
:101F380064EB090404FA06F622FA01F31E43CC40C6
:101F4800C5E9006400214CE76208480842EAC1710B
:101F58000B0C43EA00438AB242EA0342B3FBF6F1B0
:101F6800E407B4463746B6461F23B0FBF6F0D21B4B
:101F780041EA004161E7614614E7104628E7C3F1EA
:101F8800200120FA01F29E4027FA01F19F403A43CE
:101F98004FEA164E1FFA86FCB1FBFEF70EFB171030
:101FA800110C41EA004107FB0CF8884504FA03F4D8
:101FB8003AD9711807F1FF3001D288451FD8A1EB33
:101FC8000801B1FBFEF808FB0CF70EFB181192B2E2
:101FD80042EA0142BA422FD2B21808F1FF31C6D202
:101FE800BA42C4D2A8F102013244C0E7F0459CD2FB
:101FF800BEEB020367EB0C070138B94695E7A6EB81
:1020080008084144B81EB1FBFEF808FB0CF7DCE7F2
:102018003B467FE7504667E70846FBE6344402380C
:1020280032E7023F32441BE7A1EB08013846B1FB17
:10203800FEF808FB0CF7C8E7414698E7F8B500BF7B
:10204800F8BC08BC9E467047F8B500BFF8BC08BC91
:042058009E467047E9
:10205C00000610160006101600000000000000001C
:08206C00010203040607080944
:08207400D8FCFF7F0100000011
:04207C003502000821
:042080000D02000845
:0C20840001000000100000000024F40027
:040000050800037973
:00000001FF
